:100000000C942A000C94821A0C94AD1A0C9447009C
:100010000C9447000C9447000C9447000C94470044
:100020000C9447000C94D81A0C9447000C94470089
:100030000C9447000C9447000C942E1B0C94470022
:100040000C9447000C9447000C946E1D0C94981D62
:100050000C94470011241FBECFE5D4E0DEBFCDBF16
:1000600010E0A0E6B0E0EAEFFEE302C005900D92DA
:10007000A037B107D9F710E0A0E7B0E001C01D92AA
:10008000A737B107E1F70E94EE1D0C947B1F0C947B
:100090000000EF92FF920F931F937B018C0120E0F1
:1000A00030E040E05FE40E94490388238CF0C801FF
:1000B000B70120E030E040E05FE40E94C1010E940F
:1000C000A9039B01AC01205030404040504806C07D
:1000D000C801B7010E94A9039B01AC01B901CA0183
:1000E0001F910F91FF90EF900895A0E0B0E0EBE733
:1000F000F0E00C94441FDC012B01FA019C9192303A
:1001000008F439C1EB018881823008F433C194309E
:1001100069F4843009F02FC111969C91119789815F
:10012000981709F428C1A0E6B0E025C1843009F48D
:1001300021C18230A9F4923009F01DC19A01AD01AC
:1001400088E0EA010990AE01E90109929E0181501F
:10015000C1F7E201898111969C918923818308C1AD
:10016000923009F407C112962D903C901397EB0141
:100170008A819B811496AD90BD90CD90DC901797AD
:10018000EC80FD800E811F819101281B390BB90184
:1001900037FF04C066277727621B730B6032710537
:1001A0000CF061C0121613066CF537014801062EDB
:1001B00004C096948794779467940A94D2F721E0C8
:1001C00030E040E050E004C0220F331F441F551FB1
:1001D0006A95D2F721503040404050402E213F21B7
:1001E00040235123211531054105510521F021E01E
:1001F00030E040E050E079018A01E628F72808293C
:1002000019293CC0232BD1F1260E371E350146019A
:10021000062E04C096948794779467940A94D2F734
:1002200021E030E040E050E004C0220F331F441FC3
:10023000551F6A95D2F721503040404050402A2146
:100240003B214C215D21211531054105510521F04E
:1002500021E030E040E050E059016A01A628B728CB
:10026000C828D9280BC0821593052CF01C01AA249C
:10027000BB24650103C0EE24FF24870111969C91E5
:10028000D20111968C91981709F445C0992339F041
:10029000A80197012A193B094C095D0906C0A6016E
:1002A00095012E193F09400B510B57FD08C01182D3
:1002B0003382228224833583468357831DC081E0A5
:1002C00081833382228288279927DC01821B930B4A
:1002D000A40BB50B84839583A683B7830DC0220F2F
:1002E000331F441F551F24833583468357838281E0
:1002F000938101979383828324813581468157813D
:10030000DA01C9010197A109B1098F5F9F4FAF4F72
:10031000BF4328F30BC0918333822282EA0CFB1C7B
:100320000C1D1D1DE482F5820683178383E0808304
:10033000248135814681578157FF1AC0C901AA27F8
:1003400097FDA095BA2F81709070A070B0705695EF
:10035000479537952795822B932BA42BB52B848318
:100360009583A683B7838281938101969383828349
:10037000DF0101C0D201CD01CDB7DEB7E2E10C94BF
:10038000601FA0E2B0E0E7ECF1E00C94501F69833D
:100390007A838B839C832D833E834F835887E9E048
:1003A000EE2EF12CEC0EFD1ECE010196B7010E943F
:1003B000D2048E010F5E1F4FCE010596B8010E9438
:1003C000D2048A8991E089278A8BC701B801AE01DE
:1003D000475E5F4F0E9475000E94FD03A096E6E015
:1003E0000C946C1FA0E2B0E0E8EFF1E00C94501F19
:1003F00069837A838B839C832D833E834F835887C5
:10040000F9E0EF2EF12CEC0EFD1ECE010196B701A6
:100410000E94D2048E010F5E1F4FCE010596B801D7
:100420000E94D204C701B801AE01475E5F4F0E942F
:1004300075000E94FD03A096E6E00C946C1FA0E2FC
:10044000B0E0E5E2F2E00C94441F69837A838B8389
:100450009C832D833E834F835887CE010196BE0136
:10046000675F7F4F0E94D204CE010596BE016F5E8A
:100470007F4F0E94D2049985923088F0898982301A
:10048000C8F0943019F4823051F404C0843029F457
:10049000923081F480E690E0C6C0923049F420E0CA
:1004A0009A858A89981321E02A87CE010996BBC0D4
:1004B000823049F420E09A858A89981321E02A8BBA
:1004C000CE014196B0C02D843E844F8458886D88FB
:1004D0007E888F88988CEE24FF248701AA24BB2471
:1004E000650140E050E060E070E0E0E0F0E0C10174
:1004F00081709070892BE9F0E60CF71C081D191D1E
:100500009A01AB012A0D3B1D4C1D5D1D80E090E062
:10051000A0E0B0E0E614F7040805190520F481E036
:1005200090E0A0E0B0E0BA01A901480F591F6A1F8E
:100530007B1FAA0CBB1CCC1CDD1C97FE08C081E0F5
:1005400090E0A0E0B0E0A82AB92ACA2ADB2A3196B6
:10055000E032F10549F0660C771C881C991C569412
:10056000479437942794C3CFFA85EA892B893C892D
:100570008B859C85280F391F2E5F3F4F17C0CA01FE
:1005800081709070892B61F016950795F794E79428
:1005900080E090E0A0E0B0E8E82AF92A0A2B1B2BC3
:1005A00076956795579547952F5F3F4F77FDE7CF36
:1005B0000CC0440F551F661F771F17FD4160EE0CDE
:1005C000FF1C001F111F21503040403090E05907A0
:1005D00090E0690790E4790760F32B8F3C8FDB0193
:1005E000CA018F779070A070B07080349105A1051A
:1005F000B10561F447FD0AC0E114F10401051105DC
:1006000029F0405C5F4F6F4F7F4F40781A8EFE1786
:1006100011F081E08A8F4D8F5E8F6F8F78A383E01A
:10062000898FCE0149960E94FD03A096E2E10C94C9
:10063000601FA8E1B0E0EFE1F3E00C94501F698384
:100640007A838B839C832D833E834F83588789E0F5
:10065000E82EF12CEC0EFD1ECE010196B7010E9492
:10066000D2048E010F5E1F4FCE010596B8010E9485
:10067000D2048985823040F08989823028F0C70110
:10068000B8010E944A0501C08FEF6896E6E00C941D
:100690006C1FA8E1B0E0EFE4F3E00C94501F698315
:1006A0007A838B839C832D833E834F83588789E095
:1006B000E82EF12CEC0EFD1ECE010196B7010E9432
:1006C000D2048E010F5E1F4FCE010596B8010E9425
:1006D000D2048985823040F08989823028F0C701B0
:1006E000B8010E944A0501C08FEF6896E6E00C94BD
:1006F0006C1FA8E1B0E0EFE7F3E00C94501F6983B2
:100700007A838B839C832D833E834F83588789E034
:10071000E82EF12CEC0EFD1ECE010196B7010E94D1
:10072000D2048E010F5E1F4FCE010596B8010E94C4
:10073000D2048985823040F08989823028F0C7014F
:10074000B8010E944A0501C081E06896E6E00C9479
:100750006C1FACE0B0E0EFEAF3E00C94541F698347
:100760007A838B839C83CE010196BE016B5F7F4FA2
:100770000E94D2048D81823061F1823050F1843048
:1007800021F48E81882351F12EC02F81388537FDC9
:1007900020C06E812F3131051CF06623F9F023C093
:1007A0008EE190E0821B930B29853A854B855C8511
:1007B00004C056954795379527958A95D2F76623B5
:1007C000B1F050954095309521953F4F4F4F5F4F79
:1007D0000EC020E030E040E050E009C02FEF3FEFD6
:1007E0004FEF5FE704C020E030E040E050E8B9019F
:1007F000CA012C96E2E00C94701FDF92EF92FF92F8
:100800000F931F93FC01E480F58006811781D1804E
:100810008081823048F480E090E0A0E1B0E0E82AF6
:10082000F92A0A2B1B2BA5C0843009F49FC0823003
:1008300021F4EE24FF24870105C0E114F104010531
:10084000110519F4E0E0F0E096C0628173819FEF3A
:10085000623879070CF05BC022E83FEF261B370BAC
:100860002A3131052CF020E030E040E050E02AC091
:10087000B801A701022E04C0769567955795479554
:100880000A94D2F781E090E0A0E0B0E004C0880FC5
:10089000991FAA1FBB1F2A95D2F70197A109B10979
:1008A0008E219F21A023B1230097A105B10521F03E
:1008B00081E090E0A0E0B0E09A01AB01282B392B59
:1008C0004A2B5B2BDA01C9018F779070A070B07052
:1008D00080349105A105B10539F427FF09C0205CDA
:1008E0003F4F4F4F5F4F04C0215C3F4F4F4F5F4F13
:1008F000E0E0F0E02030A0E03A07A0E04A07A0E402
:100900005A0710F0E1E0F0E079018A0127C0603871
:10091000710564F5FB01E158FF4FD801C7018F77DE
:100920009070A070B07080349105A105B10539F4C4
:10093000E7FE0DC080E490E0A0E0B0E004C08FE3EB
:1009400090E0A0E0B0E0E80EF91E0A1F1B1F17FFA1
:1009500005C016950795F794E794319687E01695AC
:100960000795F794E7948A95D1F705C0EE24FF2404
:100970008701EFEFF0E06E2F679566276795902F60
:100980009F77D794DD24D7948E2F8695492F462BB9
:10099000582F5D29B701CA011F910F91FF90EF9069
:1009A000DF900895FC01DB01408151812281622F9B
:1009B0006F7770E0221F2227221F9381892F880FD3
:1009C000822B282F30E0991F9927991F11969C930D
:1009D000119721153105A9F54115510561057105DD
:1009E00011F482E037C082E89FEF13969C938E93B8
:1009F00012979A01AB0167E0220F331F441F551F66
:100A00006A95D1F783E08C930DC0220F331F441FEA
:100A1000551F12968D919C911397019713969C9355
:100A20008E931297203080E0380780E0480780E4FA
:100A3000580758F314962D933D934D935C93179755
:100A400008952F3F310579F4411551056105710570
:100A500019F484E08C93089564FF03C081E08C93C3
:100A600012C01C9210C02F57304013963C932E9307
:100A7000129783E08C9387E0440F551F661F771F02
:100A80008A95D1F7706414964D935D936D937C9322
:100A9000179708951F93DC01FB019C91923008F495
:100AA00047C08081823008F443C0943051F41196DD
:100AB0001C91843099F58181682F70E0611B710968
:100AC0003FC0843021F0923031F48230B9F181811D
:100AD000882389F12DC011961C9111978230F1F075
:100AE00081811817D9F412962D913C911397828128
:100AF00093818217930794F028173907BCF0149656
:100B00008D919D910D90BC91A02D248135814681C0
:100B10005781281739074A075B0718F4112341F05A
:100B20000AC082179307A407B50740F4112319F0F0
:100B300061E070E005C06FEF7FEF02C060E070E041
:100B4000CB011F910895DF93CF93CDB7DEB7A6E217
:100B5000B0E0E6E2F0E0808181608C93A6E2B0E054
:100B6000E6E2F0E0808182608C93A6E2B0E0E6E20B
:100B7000F0E0808184608C93A7E2B0E0E7E2F0E0EF
:100B8000808180628C93A7E2B0E0E7E2F0E08081B0
:100B900080648C93A7E2B0E0E7E2F0E080818F7799
:100BA0008C93A6E2B0E0E6E2F0E0808180688C936E
:100BB000CF91DF910895DF93CF930F92CDB7DEB73A
:100BC00089838981882F90E081709070009739F433
:100BD000A7E2B0E0E7E2F0E080818E7F8C9389812C
:100BE000882F90E081709070882339F0A7E2B0E000
:100BF000E7E2F0E0808181608C938981882F90E02A
:100C00008270907095958795009739F4A7E2B0E0CF
:100C1000E7E2F0E080818D7F8C938981882F90E0DE
:100C200082709070959587958130910539F4A7E28F
:100C3000B0E0E7E2F0E0808182608C938981882FC8
:100C400090E084709070959587959595879500971D
:100C500039F4A7E2B0E0E7E2F0E080818B7F8C938B
:100C60008981882F90E084709070959587959595EF
:100C700087958130910539F4A7E2B0E0E7E2F0E032
:100C8000808184608C938981882F90E08870907037
:100C9000959587959595879595958795009739F4BE
:100CA000A7E2B0E0E7E2F0E08081877F8C93898162
:100CB000882F90E088709070959587959595879589
:100CC000959587958130910539F4A7E2B0E0E7E288
:100CD000F0E0808188608C938981882F90E080711A
:100CE0009070959587959595879595958795959508
:100CF0008795009739F4A7E2B0E0E7E2F0E0808161
:100D00008F7E8C938981882F90E08071907095956B
:100D10008795959587959595879595958795813034
:100D2000910539F4A7E2B0E0E7E2F0E0808180616C
:100D30008C93A6E2B0E0E6E2F0E0808180648C93E0
:100D40000F90CF91DF910895DF93CF9300D000D023
:100D50000F92CDB7DEB7E4E2F0E08081882F90E01B
:100D600080749070082E892F000C881F990B000C3E
:100D7000881F991F282FE4E2F0E08081882F90E0FF
:100D800080789070880F991F880F892F881F990B82
:100D9000820F8983E5E2F0E08081882F90E09B83D9
:100DA0008A838981282F30E08A819B81880F991F4F
:100DB000880F991F820F931F9D838C838C819D8147
:100DC0000F900F900F900F900F90CF91DF9108959B
:100DD000DF93CF93CDB7DEB783E067E041E00E94B9
:100DE000E10983E067E040E00E94F308CF91DF91E2
:100DF0000895DF93CF930F92CDB7DEB7898383E059
:100E000067E049810E94F3080F90CF91DF91089528
:100E1000DF93CF93CDB7DEB76C970FB6F894DEBFF4
:100E20000FBECDBF83E067E041E00E94F30880E0A1
:100E300090E0AAE7B4E4898F9A8FAB8FBC8F698D5D
:100E40007A8D8B8D9C8D20E030E04AE753E40E9440
:100E50001F02DC01CB018D8B9E8BAF8BB88F6D8910
:100E60007E898F89988D20E030E040E85FE30E9422
:100E7000790388232CF481E090E09C8B8B8B3FC01E
:100E80006D897E898F89988D20E03FEF4FE757E489
:100E90000E94190318164CF5698D7A8D8B8D9C8DE7
:100EA00020E030E040E251E40E941F02DC01CB016F
:100EB000BC01CD010E944900DC01CB019C8B8B8BD6
:100EC0000FC089E190E09A8B898B89899A89019773
:100ED000F1F79A8B898B8B899C8901979C8B8B8BE3
:100EE0008B899C89009769F714C06D897E898F89E9
:100EF000988D0E944900DC01CB019C8B8B8B8B89E8
:100F00009C89988B8F878F8598890197F1F7988BAB
:100F10008F8783E067E040E00E94F30880E090E084
:100F2000AAE7B4E48B879C87AD87BE876B857C85F9
:100F30008D859E8520E030E04AE753E40E941F0241
:100F4000DC01CB018F839887A987BA876F81788569
:100F500089859A8520E030E040E85FE30E947903CC
:100F600088232CF481E090E09E838D833FC06F81C5
:100F7000788589859A8520E03FEF4FE757E40E9406
:100F8000190318164CF56B857C858D859E8520E0B0
:100F900030E040E251E40E941F02DC01CB01BC01C1
:100FA000CD010E944900DC01CB019E838D830FC0DF
:100FB00089E190E09C838B838B819C810197F1F781
:100FC0009C838B838D819E8101979E838D838D81F0
:100FD0009E81009769F714C06F81788589859A850D
:100FE0000E944900DC01CB019E838D838D819E810F
:100FF0009A83898389819A810197F1F79A838983FA
:101000006C960FB6F894DEBF0FBECDBFCF91DF91C7
:101010000895DF93CF93CDB7DEB7AAE3B0E0EAE35C
:10102000F0E080818F708C93AAE3B0E0EAE3F0E017
:101030008081807F8C93A7E3B0E0E7E3F0E08081DC
:101040008F708C93A7E3B0E0E7E3F0E08081807FCE
:101050008C93A4E3B0E0E4E3F0E080818F708C93A4
:10106000A4E3B0E0E4E3F0E08081807F8C93A1E32F
:10107000B0E0E1E3F0E080818F708C93A1E3B0E019
:10108000E1E3F0E08081807F8C93CF91DF91089540
:10109000DF93CF9300D000D00F92CDB7DEB78A8315
:1010A0006B838A81282F30E03D832C834C815D81C6
:1010B00041305105B1F18C819D818230910534F42C
:1010C0002C813D812115310571F084C04C815D81F9
:1010D0004230510509F443C08C819D8183309105D4
:1010E00009F45BC077C0E9E3F0E08081482F50E06D
:1010F0008B81282F30E081E090E002C0880F991F9B
:101100002A95E2F79A01282339238B81882F90E0D2
:10111000A90102C0559547958A95E2F7CA018983CE
:1011200059C0E6E3F0E08081482F50E08B81282F02
:1011300030E081E090E002C0880F991F2A95E2F725
:101140009A01282339238B81882F90E0A90102C0BE
:10115000559547958A95E2F7CA0189833BC0E3E339
:10116000F0E08081482F50E08B81282F30E081E033
:1011700090E002C0880F991F2A95E2F79A01282370
:1011800039238B81882F90E0A90102C0559547959E
:101190008A95E2F7CA0189831DC0E0E3F0E080810F
:1011A000482F50E08B81282F30E081E090E002C092
:1011B000880F991F2A95E2F79A01282339238B81FA
:1011C000882F90E0A90102C0559547958A95E2F7CE
:1011D000CA01898389810F900F900F900F900F9013
:1011E000CF91DF910895DF93CF9300D000D00F927D
:1011F000CDB7DEB789836A834B838981282F30E09E
:101200003D832C838C819D818130910509F446C0FA
:101210002C813D81223031052CF48C819D810097F9
:1012200071F0C7C02C813D812230310509F465C0C1
:101230008C819D818330910509F48EC0BAC08B8169
:101240008823A1F4ABE3B0E0EBE3F0E08081482F2A
:101250008A81282F30E081E090E0022E02C0880FC2
:10126000991F0A94E2F7809584238C938B818130B7
:1012700009F09FC0ABE3B0E0EBE3F0E08081482FE2
:101280008A81282F30E081E090E0022E02C0880F92
:10129000991F0A94E2F7842B8C938BC08B8188234F
:1012A000A1F4A8E3B0E0E8E3F0E08081482F8A8170
:1012B000282F30E081E090E0022E02C0880F991FB5
:1012C0000A94E2F7809584238C938B81813009F016
:1012D00070C0A8E3B0E0E8E3F0E08081482F8A81A5
:1012E000282F30E081E090E0022E02C0880F991F85
:1012F0000A94E2F7842B8C935CC08B818823A1F441
:10130000A5E3B0E0E5E3F0E08081482F8A81282F53
:1013100030E081E090E0022E02C0880F991F0A940D
:10132000E2F7809584238C938B81813009F041C052
:10133000A5E3B0E0E5E3F0E08081482F8A81282F23
:1013400030E081E090E0022E02C0880F991F0A94DD
:10135000E2F7842B8C932DC08B818823A1F4A2E328
:10136000B0E0E2E3F0E08081482F8A81282F30E06E
:1013700081E090E0022E02C0880F991F0A94E2F7E4
:10138000809584238C938B81813099F4A2E3B0E023
:10139000E2E3F0E08081482F8A81282F30E081E06D
:1013A00090E0022E02C0880F991F0A94E2F7842B66
:1013B0008C930F900F900F900F900F90CF91DF9123
:1013C0000895DF93CF9300D000D00F92CDB7DEB752
:1013D00089836A834B838981282F30E03D832C8366
:1013E0008C819D818130910509F446C02C813D811D
:1013F000223031052CF48C819D81009771F0C7C09B
:101400002C813D812230310509F465C08C819D819C
:101410008330910509F48EC0BAC08B818823A1F472
:10142000AAE3B0E0EAE3F0E08081482F8A81282F28
:1014300030E081E090E0022E02C0880F991F0A94EC
:10144000E2F7809584238C938B81813009F09FC0D3
:10145000AAE3B0E0EAE3F0E08081482F8A81282FF8
:1014600030E081E090E0022E02C0880F991F0A94BC
:10147000E2F7842B8C938BC08B818823A1F4A7E3A4
:10148000B0E0E7E3F0E08081482F8A81282F30E048
:1014900081E090E0022E02C0880F991F0A94E2F7C3
:1014A000809584238C938B81813009F070C0A7E3F1
:1014B000B0E0E7E3F0E08081482F8A81282F30E018
:1014C00081E090E0022E02C0880F991F0A94E2F793
:1014D000842B8C935CC08B818823A1F4A4E3B0E0BF
:1014E000E4E3F0E08081482F8A81282F30E081E01A
:1014F00090E0022E02C0880F991F0A94E2F78095AF
:1015000084238C938B81813009F041C0A4E3B0E047
:10151000E4E3F0E08081482F8A81282F30E081E0E9
:1015200090E0022E02C0880F991F0A94E2F7842BE4
:101530008C932DC08B818823A1F4A1E3B0E0E1E37B
:10154000F0E08081482F8A81282F30E081E090E010
:10155000022E02C0880F991F0A94E2F78095842317
:101560008C938B81813099F4A1E3B0E0E1E3F0E06A
:101570008081482F8A81282F30E081E090E0022E80
:1015800002C0880F991F0A94E2F7842B8C930F9066
:101590000F900F900F900F90CF91DF910895DF93F0
:1015A000CF9300D00F92CDB7DEB789838981282FE2
:1015B00030E03B832A838A819B818130910559F1F8
:1015C0002A813B81223031052CF48A819B8100974E
:1015D00061F062C02A813B812230310591F18A811C
:1015E0009B8183309105E1F157C0A5E5B0E0E5E5C9
:1015F000F0E0808181608C93A5E5B0E0E5E5F0E066
:1016000080818D7F8C93ABE5B0E0EBE5F0E08081ED
:1016100080648C9341C0ABE5B0E0EBE5F0E0808105
:1016200080688C93A5E5B0E0E5E5F0E0808184601A
:101630008C93A5E5B0E0E5E5F0E08081877F8C93B1
:101640002BC0ABE5B0E0EBE5F0E0808180628C93ED
:10165000A4E5B0E0E4E5F0E0808180648C931CC0F8
:10166000A6E2B0E0E6E2F0E0808188608C93ABE532
:10167000B0E0EBE5F0E080818F778C93ABE5B0E0F4
:10168000EBE5F0E080818F7B8C93ABE5B0E0EBE5A0
:10169000F0E080818F7D8C930F900F900F90CF9111
:1016A000DF910895DF93CF93CDB7DEB76D970FB677
:1016B000F894DEBF0FBECDBF8D8F83E060E040E0C9
:1016C0000E94F308A5E3B0E0E5E3F0E08081282F75
:1016D0002F708D8D82958F70882F90E090708295FD
:1016E0009295907F9827807F9827822B8C9383E018
:1016F00061E041E00E94F30880E090E0A0E0B0E407
:10170000898F9A8FAB8FBC8F698D7A8D8B8D9C8DD5
:1017100020E030E04AE753E40E941F02DC01CB01E5
:101720008D8B9E8BAF8BB88F6D897E898F89988DBD
:1017300020E030E040E85FE30E94790388232CF446
:1017400081E090E09C8B8B8B3FC06D897E898F8977
:10175000988D20E03FEF4FE757E40E9419031816D9
:101760004CF5698D7A8D8B8D9C8D20E030E040E2C8
:1017700051E40E941F02DC01CB01BC01CD010E949B
:101780004900DC01CB019C8B8B8B0FC089E190E081
:101790009A8B898B89899A890197F1F79A8B898B22
:1017A0008B899C8901979C8B8B8B8B899C8900975B
:1017B00069F714C06D897E898F89988D0E944900D0
:1017C000DC01CB019C8B8B8B8B899C89988B8F87C1
:1017D0008F8598890197F1F7988B8F8783E061E077
:1017E00040E00E94F308A5E3B0E0E5E3F0E080818B
:1017F000282F2F708D8D882F90E08F70907082959C
:101800009295907F9827807F9827822B8C9383E0F6
:1018100061E041E00E94F30880E090E0A0E0B0E4E5
:101820008B879C87AD87BE876B857C858D859E85E4
:1018300020E030E04AE753E40E941F02DC01CB01C4
:101840008F839887A987BA876F81788589859A85DC
:1018500020E030E040E85FE30E94790388232CF425
:1018600081E090E09E838D833FC06F81788589857C
:101870009A8520E03FEF4FE757E40E9419031816BE
:101880004CF56B857C858D859E8520E030E040E2BF
:1018900051E40E941F02DC01CB01BC01CD010E947A
:1018A0004900DC01CB019E838D830FC089E190E06C
:1018B0009C838B838B819C810197F1F79C838B8325
:1018C0008D819E8101979E838D838D819E8100975E
:1018D00069F714C06F81788589859A850E944900CF
:1018E000DC01CB019E838D838D819E819A838983C8
:1018F00089819A810197F1F79A83898383E061E076
:1019000040E00E94F3086D960FB6F894DEBF0FBE5C
:10191000CDBFCF91DF910895DF93CF93CDB7DEB7E1
:10192000AA970FB6F894DEBF0FBECDBF83E060E08C
:1019300041E00E94E10983E061E041E00E94E109A9
:1019400082E064E041E00E94E10982E065E041E07C
:101950000E94E10982E066E041E00E94E10982E044
:1019600067E041E00E94E10980E090E0A8E4B2E491
:101970008FA398A7A9A7BAA76FA178A589A59AA5AB
:1019800020E030E04AE753E40E941F02DC01CB0173
:101990008BA39CA3ADA3BEA36BA17CA18DA19EA193
:1019A00020E030E040E85FE30E94790388232CF4D4
:1019B00081E090E09AA389A33FC06BA17CA18DA197
:1019C0009EA120E03FEF4FE757E40E94190318164D
:1019D0004CF56FA178A589A59AA520E030E040E2FA
:1019E00051E40E941F02DC01CB01BC01CD010E9429
:1019F0004900DC01CB019AA389A30FC089E190E0E3
:101A000098A38F8F8F8D98A10197F1F798A38F8F4F
:101A100089A19AA101979AA389A389A19AA1009764
:101A200069F714C06BA17CA18DA19EA10E94490001
:101A3000DC01CB019AA389A389A19AA19E8F8D8FE6
:101A40008D8D9E8D0197F1F79E8F8D8F82E00E9484
:101A5000520B88E20E94520B80E090E0A0E2B1E4D9
:101A6000898F9A8FAB8FBC8F698D7A8D8B8D9C8D72
:101A700020E030E04AE753E40E941F02DC01CB0182
:101A80008D8B9E8BAF8BB88F6D897E898F89988D5A
:101A900020E030E040E85FE30E94790388232CF4E3
:101AA00081E090E09C8B8B8B3FC06D897E898F8914
:101AB000988D20E03FEF4FE757E40E941903181676
:101AC0004CF5698D7A8D8B8D9C8D20E030E040E265
:101AD00051E40E941F02DC01CB01BC01CD010E9438
:101AE0004900DC01CB019C8B8B8B0FC089E190E01E
:101AF0009A8B898B89899A890197F1F79A8B898BBF
:101B00008B899C8901979C8B8B8B8B899C890097F7
:101B100069F714C06D897E898F89988D0E9449006C
:101B2000DC01CB019C8B8B8B8B899C89988B8F875D
:101B30008F8598890197F1F7988B8F878CE00E94A9
:101B4000520B80E090E0A0E2B1E48B879C87AD87E8
:101B5000BE876B857C858D859E8520E030E04AE7D9
:101B600053E40E941F02DC01CB018F839887A98771
:101B7000BA876F81788589859A8520E030E040E8D2
:101B80005FE30E94790388232CF481E090E09E8338
:101B90008D833FC06F81788589859A8520E03FEFEE
:101BA0004FE757E40E94190318164CF56B857C85A6
:101BB0008D859E8520E030E040E251E40E941F02C6
:101BC000DC01CB01BC01CD010E944900DC01CB014D
:101BD0009E838D830FC089E190E09C838B838B81F2
:101BE0009C810197F1F79C838B838D819E81019766
:101BF0009E838D838D819E81009769F714C06F81CC
:101C0000788589859A850E944900DC01CB019E83F5
:101C10008D838D819E819A83898389819A810197A1
:101C2000F1F79A8389830E94620F81E00E945C1120
:101C3000AA960FB6F894DEBF0FBECDBFCF91DF914D
:101C40000895DF93CF93CDB7DEB76D970FB6F894B5
:101C5000DEBF0FBECDBF8D8FA2E3B0E0E2E3F0E0C8
:101C6000808181608C93A5E3B0E0E5E3F0E08081C2
:101C7000282F2F708D8D82958F70882F90E0907017
:101C800082959295907F9827807F9827822B8C93BE
:101C900083E061E041E00E94F30880E090E0A0EA88
:101CA000B1E4898F9A8FAB8FBC8F698D7A8D8B8DC4
:101CB0009C8D20E030E04AE753E40E941F02DC01E3
:101CC000CB018D8B9E8BAF8BB88F6D897E898F8971
:101CD000988D20E030E040E85FE30E94790388239C
:101CE0002CF481E090E09C8B8B8B3FC06D897E89CA
:101CF0008F89988D20E03FEF4FE757E40E9419034A
:101D000018164CF5698D7A8D8B8D9C8D20E030E016
:101D100040E251E40E941F02DC01CB01BC01CD0175
:101D20000E944900DC01CB019C8B8B8B0FC089E1A9
:101D300090E09A8B898B89899A890197F1F79A8B20
:101D4000898B8B899C8901979C8B8B8B8B899C8938
:101D5000009769F714C06D897E898F89988D0E94DC
:101D60004900DC01CB019C8B8B8B8B899C89988BE8
:101D70008F878F8598890197F1F7988B8F8783E0FC
:101D800061E040E00E94F308A5E3B0E0E5E3F0E0A5
:101D90008081282F2F708D8D882F90E08F7090700C
:101DA00082959295907F9827807F9827822B8C939D
:101DB00083E061E041E00E94F30880E090E0A0EA67
:101DC000B1E48B879C87AD87BE876B857C858D85CD
:101DD0009E8520E030E04AE753E40E941F02DC01C8
:101DE000CB018F839887A987BA876F81788589858A
:101DF0009A8520E030E040E85FE30E947903882381
:101E00002CF481E090E09E838D833FC06F817885C4
:101E100089859A8520E03FEF4FE757E40E94190338
:101E200018164CF56B857C858D859E8520E030E00D
:101E300040E251E40E941F02DC01CB01BC01CD0154
:101E40000E944900DC01CB019E838D830FC089E194
:101E500090E09C838B838B819C810197F1F79C831D
:101E60008B838D819E8101979E838D838D819E8141
:101E7000009769F714C06F81788589859A850E94DB
:101E80004900DC01CB019E838D838D819E819A83E5
:101E9000898389819A810197F1F79A83898383E005
:101EA00061E040E00E94F308809172008F5F8093B0
:101EB00072006D960FB6F894DEBF0FBECDBFCF9106
:101EC000DF910895DF93CF93CDB7DEB72E970FB68E
:101ED000F894DEBF0FBECDBF81E00E94520B80E0C0
:101EE00090E0A0EAB1E48B879C87AD87BE876B85C5
:101EF0007C858D859E8520E030E04AE753E40E9492
:101F00001F02DC01CB018F839887A987BA876F8175
:101F1000788589859A8520E030E040E85FE30E947B
:101F2000790388232CF481E090E09E838D833FC069
:101F30006F81788589859A8520E03FEF4FE757E4E8
:101F40000E94190318164CF56B857C858D859E853E
:101F500020E030E040E251E40E941F02DC01CB01AE
:101F6000BC01CD010E944900DC01CB019E838D8321
:101F70000FC089E190E09C838B838B819C810197CA
:101F8000F1F79C838B838D819E8101979E838D8346
:101F90008D819E81009769F714C06F81788589854E
:101FA0009A850E944900DC01CB019E838D838D813F
:101FB0009E819A83898389819A810197F1F79A8317
:101FC0008983109270002E960FB6F894DEBF0FBE74
:101FD000CDBFCF91DF910895DF93CF9300D0CDB7E0
:101FE000DEB789836A838A81882329F08981805CAE
:101FF0008093720003C08981809372008091720087
:102000000E94EC110F900F90CF91DF910895DF9314
:10201000CF9300D000D00F92CDB7DEB79C838B83D7
:102020001A82198206C08A818F5F8A8389818F5FB5
:1020300089838A81282F30E08B819C81FC01E20F0B
:10204000F31F8081882319F08981813160F38981B0
:102050008131B8F41A820EC08A81282F30E08B813A
:102060009C81FC01E20FF31F80810E94210E8A8176
:102070008F5F8A839A818981981770F381E08D83BD
:1020800001C01D828D810F900F900F900F900F90C7
:10209000CF91DF910895DF93CF93CDB7DEB72F9720
:1020A0000FB6F894DEBF0FBECDBF8F878F850E941D
:1020B000520B80E090E0A0E2B1E48B879C87AD8773
:1020C000BE876B857C858D859E8520E030E04AE764
:1020D00053E40E941F02DC01CB018F839887A987FC
:1020E000BA876F81788589859A8520E030E040E85D
:1020F0005FE30E94790388232CF481E090E09E83C3
:102100008D833FC06F81788589859A8520E03FEF78
:102110004FE757E40E94190318164CF56B857C8530
:102120008D859E8520E030E040E251E40E941F0250
:10213000DC01CB01BC01CD010E944900DC01CB01D7
:102140009E838D830FC089E190E09C838B838B817C
:102150009C810197F1F79C838B838D819E810197F0
:102160009E838D838D819E81009769F714C06F8156
:10217000788589859A850E944900DC01CB019E8380
:102180008D838D819E819A83898389819A8101972C
:10219000F1F79A8389832F960FB6F894DEBF0FBEAE
:1021A000CDBFCF91DF910895DF93CF93CDB7DEB749
:1021B0002E970FB6F894DEBF0FBECDBF8CE10E9404
:1021C000520B80E090E0A0E2B1E48B879C87AD8762
:1021D000BE876B857C858D859E8520E030E04AE753
:1021E00053E40E941F02DC01CB018F839887A987EB
:1021F000BA876F81788589859A8520E030E040E84C
:102200005FE30E94790388232CF481E090E09E83B1
:102210008D833FC06F81788589859A8520E03FEF67
:102220004FE757E40E94190318164CF56B857C851F
:102230008D859E8520E030E040E251E40E941F023F
:10224000DC01CB01BC01CD010E944900DC01CB01C6
:102250009E838D830FC089E190E09C838B838B816B
:102260009C810197F1F79C838B838D819E810197DF
:102270009E838D838D819E81009769F714C06F8145
:10228000788589859A850E944900DC01CB019E836F
:102290008D838D819E819A83898389819A8101971B
:1022A000F1F79A8389832E960FB6F894DEBF0FBE9E
:1022B000CDBFCF91DF910895DF93CF93CDB7DEB738
:1022C0002F970FB6F894DEBF0FBECDBF8F878F85D7
:1022D000882321F086E00E94520B03C087E00E9411
:1022E000520B80E090E0A0E2B1E48B879C87AD8741
:1022F000BE876B857C858D859E8520E030E04AE732
:1023000053E40E941F02DC01CB018F839887A987C9
:10231000BA876F81788589859A8520E030E040E82A
:102320005FE30E94790388232CF481E090E09E8390
:102330008D833FC06F81788589859A8520E03FEF46
:102340004FE757E40E94190318164CF56B857C85FE
:102350008D859E8520E030E040E251E40E941F021E
:10236000DC01CB01BC01CD010E944900DC01CB01A5
:102370009E838D830FC089E190E09C838B838B814A
:102380009C810197F1F79C838B838D819E810197BE
:102390009E838D838D819E81009769F714C06F8124
:1023A000788589859A850E944900DC01CB019E834E
:1023B0008D838D819E819A83898389819A810197FA
:1023C000F1F79A8389832F960FB6F894DEBF0FBE7C
:1023D000CDBFCF91DF910895DF93CF93CDB7DEB717
:1023E0002F970FB6F894DEBF0FBECDBF8F878F85B6
:1023F0000E94520B80E090E0A0E2B1E48B879C87C2
:10240000AD87BE876B857C858D859E8520E030E01D
:102410004AE753E40E941F02DC01CB018F839887B7
:10242000A987BA876F81788589859A8520E030E011
:1024300040E85FE30E94790388232CF481E090E078
:102440009E838D833FC06F81788589859A8520E042
:102450003FEF4FE757E40E94190318164CF56B85C0
:102460007C858D859E8520E030E040E251E40E942D
:102470001F02DC01CB01BC01CD010E944900DC013F
:10248000CB019E838D830FC089E190E09C838B8379
:102490008B819C810197F1F79C838B838D819E8139
:1024A00001979E838D838D819E81009769F714C06B
:1024B0006F81788589859A850E944900DC01CB016E
:1024C0009E838D838D819E819A83898389819A8160
:1024D0000197F1F79A8389832F960FB6F894DEBFA0
:1024E0000FBECDBFCF91DF910895DF93CF9300D082
:1024F00000D00F92CDB7DEB78B8380917000882F0C
:1025000090E00896880F991F880F991F880F991FD0
:102510000E944B108B81282F30E03D832C838C81CF
:102520009D818E30910509F4FCC12C813D812F30B5
:1025300031050CF055C08C819D818730910509F4DF
:1025400041C12C813D81283031052CF58C819D8144
:102550008330910509F4D2C02C813D8124303105AE
:102560006CF48C819D818130910509F494C02C819B
:102570003D812230310509F4A8C049C38C819D8179
:102580008530910509F4ECC02C813D812630310560
:102590000CF0FFC0CCC08C819D818A30910509F47C
:1025A0005CC12C813D812B3031056CF48C819D8187
:1025B0008830910509F41FC12C813D8129303105F6
:1025C00009F432C124C38C819D818C30910509F4BA
:1025D00076C12C813D812D3031050CF089C156C169
:1025E0008C819D818531910509F44AC22C813D8100
:1025F000263131052CF58C819D818131910509F4BD
:10260000DBC12C813D81223131056CF48C819D81AF
:102610008F30910509F49EC12C813D812031310517
:1026200009F4B1C1F4C28C819D818331910509F413
:10263000F5C12C813D81243131050CF008C2D5C192
:102640008C819D818931910509F47EC22C813D8167
:102650002A3131056CF48C819D818731910509F413
:1026600041C22C813D81283131050CF054C221C278
:102670008C819D818B31910509F498C22C813D811B
:102680002B3131050CF479C28C819D818C319105FF
:1026900009F4A5C2BCC21A82198208C084E00E9453
:1026A000210E89819A8101969A83898389819A81F1
:1026B000853091059CF387E00E94210E80E00E9406
:1026C000210E80E00E94210EA2C280E00E94210E15
:1026D00080E00E94210E80E00E94210E81E00E9495
:1026E000210E81E00E94210E8FEF0E94210E80E0DA
:1026F0000E94210E81E00E94210E89C280E00E948A
:10270000210E80E00E94210E80E00E94210E85EFC4
:102710000E94210E81E00E94210E8FEF0E94210E67
:1027200080E00E94210E80E00E94210E70C280E0B5
:102730000E94210E80E00E94210E88E00E94210E5E
:1027400085EF0E94210E81E00E94210E8FEF0E94F2
:10275000210E80E00E94210E80E00E94210E57C2CF
:1027600080E00E94210E80E00E94210E8CE00E94F9
:10277000210E82EF0E94210E81E00E94210E8FEF38
:102780000E94210E80E00E94210E81E00E94210E15
:102790003EC280E00E94210E80E00E94210E8CE06B
:1027A0000E94210E82EF0E94210E81E00E94210EE4
:1027B0008FEF0E94210E80E00E94210E80E00E9497
:1027C000210E25C284E00E94210E80E00E94210E8D
:1027D0008CE00E94210E82EF0E94210E81E00E9477
:1027E000210E8FEF0E94210E80E00E94210E80E0DA
:1027F0000E94210E0CC280E00E94210E80E00E9407
:10280000210E80E00E94210E81E00E94210E81E0D5
:102810000E94210E8FE00E94210E80E00E94210E76
:1028200080E00E94210EF3C180E00E94210E81E031
:102830000E94210E80E00E94210E81E00E94210E64
:1028400081E00E94210E8FE00E94210E80E00E9414
:10285000210E80E00E94210EDAC180E00E94210E4C
:1028600080E00E94210E80E00E94210E80E00E9404
:10287000210E80E00E94210E83E00E94210E82E062
:102880000E94210E84E00E94210EC1C180E00E94BE
:10289000210E80E00E94210E80E00E94210E82E045
:1028A0000E94210E80E00E94210E83E00E94210EF2
:1028B00082E00E94210E84E00E94210EA8C180E0E7
:1028C0000E94210E80E00E94210E80E00E94210ED5
:1028D00085E10E94210E85E10E94210E8FE10E9478
:1028E000210E80E00E94210E80E00E94210E8FC107
:1028F00084E00E94210E8AE00E94210E80E00E9466
:10290000210E85E10E94210E85E10E94210E8FE1BA
:102910000E94210E80E00E94210E80E00E94210E84
:1029200076C180E00E94210E80E00E94210E80E0AE
:102930000E94210E86E00E94210E89E00E94210E55
:102940008FE10E94210E80E00E94210E80E00E9413
:10295000210E5DC180E00E94210E84E00E94210EC4
:1029600080E00E94210E86E00E94210E89E00E94F4
:10297000210E8FE10E94210E80E00E94210E80E056
:102980000E94210E44C180E00E94210E88E00E9436
:10299000210E88E00E94210E8EE00E94210E89E027
:1029A0000E94210E8FE10E94210E80E00E94210EE4
:1029B00080E00E94210E2BC180E00E94210E8AE05F
:1029C0000E94210E88E00E94210E8EE00E94210EBE
:1029D00089E00E94210E8FE10E94210E80E00E947A
:1029E000210E80E00E94210E12C180E00E94210E83
:1029F00080E00E94210E87E00E94210E88E00E9464
:102A0000210E88E00E94210E8FE10E94210E80E0BD
:102A10000E94210E80E00E94210EF9C084E00E94F5
:102A2000210E80E00E94210E87E00E94210E88E0A6
:102A30000E94210E88E00E94210E8FE10E94210E4B
:102A400080E00E94210E80E00E94210EE0C082E022
:102A50000E94210E80E00E94210E83E00E94210E40
:102A600083E00E94210E81E00E94210E8FE10E94EE
:102A7000210E80E00E94210E80E00E94210EC7C03E
:102A800083E00E94210E80E00E94210E83E00E94DC
:102A9000210E83E00E94210E81E00E94210E8FE131
:102AA0000E94210E80E00E94210E80E00E94210EF3
:102AB000AEC080E00E94210E8FE00E94210E84E0D3
:102AC0000E94210E82E00E94210E81E00E94210ED0
:102AD0008FE10E94210E80E00E94210E80E00E9482
:102AE000210E95C080E00E94210E81E00E94210EFF
:102AF00081E00E94210E81E00E94210E81E00E946F
:102B0000210E8FE10E94210E80E00E94210E80E0C4
:102B10000E94210E7CC080E00E94210E80E00E9475
:102B2000210E80E00E94210E80E00E94210E83E0B1
:102B30000E94210E8FE10E94210E83E00E94210E4F
:102B400080E00E94210E63C080E00E94210E80E0A0
:102B50000E94210E80E00E94210E85E00E94210E3D
:102B600081E00E94210E8FE10E94210E80E00E94F0
:102B7000210E80E00E94210E4AC080E00E94210EBA
:102B800080E00E94210E80E00E94210E80E00E94E1
:102B9000210E86E00E94210E8FE10E94210E86E028
:102BA0000E94210E80E00E94210E31C080E00E9430
:102BB000210E80E00E94210E80E00E94210E80E024
:102BC0000E94210E83E00E94210E83E00E94210ECC
:102BD00081E00E94210E82E00E94210E18C080E058
:102BE0000E94210E80E00E94210E80E00E94210EB2
:102BF00081E00E94210E81E00E94210E8FE10E945F
:102C0000210E80E00E94210E8AE00E94210E809118
:102C100072008850809372009091700080917200D1
:102C2000890F80580E94EC110F900F900F900F9019
:102C30000F90CF91DF910895DF93CF930F92CDB78F
:102C4000DEB7898389810E944716882399F4898198
:102C50000E947512809170000E94210E8091700078
:102C60008F5F8093700080917000883038F01092F0
:102C7000700004C0809171000E94210E809172004A
:102C80008150809372000F90CF91DF910895DF9370
:102C9000CF9300D000D0CDB7DEB78B831A821982D4
:102CA00014C089819A81FC01E859FF4F90818B8182
:102CB000981731F489818093710081E08C8314C06E
:102CC00089819A8101969A83898389819A81883042
:102CD00091053CF380917000882F90E0FC01E85949
:102CE000FF4F8B8180831C828C810F900F900F90FF
:102CF0000F90CF91DF910895DF93CF9300D000D054
:102D000000D0CDB7DEB79D838C838091720088366A
:102D100010F0109272001B821A82198208C08A81F8
:102D20009B8101969B838A8389818F5F89832A8116
:102D30003B818C819D81FC01E20FF31F8081882300
:102D400019F08981813158F38981813190F5898128
:102D5000882F90E001979B838A8324C02A813B813E
:102D60008C819D81FC01E20FF31F80818D3158F42D
:102D70002A813B818C819D81FC01E20FF31F8081C0
:102D80000E941C160AC02A813B818C819D81FC0116
:102D9000E20FF31F80810E94210E8A819B8101979F
:102DA0009B838A838A819B819923C4F681E08E83E9
:102DB00001C01E828E8126960FB6F894DEBF0FBE2C
:102DC000CDBFCF91DF910895DF93CF930F92CDB711
:102DD000DEB789838981882359F080E065E041E08E
:102DE0000E94E10980E065E040E00E94F3080AC02B
:102DF00080E064E041E00E94E10980E064E040E0BE
:102E00000E94F3080F90CF91DF910895DF93CF9345
:102E100000D0CDB7DEB789836A838981882331F0FA
:102E200080E065E04A810E94F30805C080E064E02C
:102E30004A810E94F3080F900F90CF91DF9108957F
:102E4000DF93CF93CDB7DEB7E9970FB6F894DEBF27
:102E50000FBECDBF89AF89AD882309F4EDC081E0F5
:102E600061E00E94061780E090E0AAE7B4E48DAB31
:102E70009EABAFABB8AF6DA97EA98FA998AD20E08E
:102E800030E04AE753E40E941F02DC01CB0189AB2A
:102E90009AABABABBCAB69A97AA98BA99CA920E082
:102EA00030E040E85FE30E94790388232CF481E05E
:102EB00090E098AB8FA73FC069A97AA98BA99CA97C
:102EC00020E03FEF4FE757E40E94190318164CF536
:102ED0006DA97EA98FA998AD20E030E040E251E4D1
:102EE0000E941F02DC01CB01BC01CD010E94490000
:102EF000DC01CB0198AB8FA70FC089E190E09EA7C2
:102F00008DA78DA59EA50197F1F79EA78DA78FA5EB
:102F100098A9019798AB8FA78FA598A9009769F7F3
:102F200014C069A97AA98BA99CA90E944900DC0157
:102F3000CB0198AB8FA78FA598A99CA78BA78BA532
:102F40009CA50197F1F79CA78BA781E060E00E9408
:102F5000061780E090E0AAE7B4E48FA398A7A9A79A
:102F6000BAA76FA178A589A59AA520E030E04AE725
:102F700053E40E941F02DC01CB018BA39CA3ADA3F1
:102F8000BEA36BA17CA18DA19EA120E030E040E812
:102F90005FE30E94790388232CF481E090E09AA3F8
:102FA00089A33FC06BA17CA18DA19EA120E03FEF32
:102FB0004FE757E40E94190318164CF56FA178A546
:102FC00089A59AA520E030E040E251E40E941F026A
:102FD000DC01CB01BC01CD010E944900DC01CB0129
:102FE0009AA389A30FC089E190E098A38F8F8F8D5A
:102FF00098A10197F1F798A38F8F89A19AA10197C2
:103000009AA389A389A19AA1009769F701C16BA12D
:103010007CA18DA19EA10E944900DC01CB019AA355
:1030200089A389A19AA19E8F8D8F8D8D9E8D0197E9
:10303000F1F79E8F8D8FECC080E061E00E94061753
:1030400080E090E0AAE7B4E4898F9A8FAB8FBC8FC1
:10305000698D7A8D8B8D9C8D20E030E04AE753E4BA
:103060000E941F02DC01CB018D8B9E8BAF8BB88F32
:103070006D897E898F89988D20E030E040E85FE39C
:103080000E94790388232CF481E090E09C8B8B8B49
:103090003FC06D897E898F89988D20E03FEF4FE793
:1030A00057E40E94190318164CF5698D7A8D8B8DA3
:1030B0009C8D20E030E040E251E40E941F02DC01E0
:1030C000CB01BC01CD010E944900DC01CB019C8BEE
:1030D0008B8B0FC089E190E09A8B898B89899A89C3
:1030E0000197F1F79A8B898B8B899C8901979C8B2F
:1030F0008B8B8B899C89009769F714C06D897E89B9
:103100008F89988D0E944900DC01CB019C8B8B8BB1
:103110008B899C89988B8F878F8598890197F1F788
:10312000988B8F8780E060E00E94061780E090E037
:10313000AAE7B4E48B879C87AD87BE876B857C85C7
:103140008D859E8520E030E04AE753E40E941F020F
:10315000DC01CB018F839887A987BA876F81788537
:1031600089859A8520E030E040E85FE30E9479039A
:1031700088232CF481E090E09E838D833FC06F8193
:10318000788589859A8520E03FEF4FE757E40E94D4
:10319000190318164CF56B857C858D859E8520E07E
:1031A00030E040E251E40E941F02DC01CB01BC018F
:1031B000CD010E944900DC01CB019E838D830FC0AD
:1031C00089E190E09C838B838B819C810197F1F74F
:1031D0009C838B838D819E8101979E838D838D81BE
:1031E0009E81009769F714C06F81788589859A85DB
:1031F0000E944900DC01CB019E838D838D819E81DD
:103200009A83898389819A810197F1F79A838983C7
:10321000E9960FB6F894DEBF0FBECDBFCF91DF9118
:103220000895DF93CF93CDB7DEB781E060E041E052
:103230000E94E10981E061E041E00E94E10981E052
:1032400064E041E00E94E10981E065E041E00E9424
:10325000E10981E066E041E00E94E10981E067E088
:1032600041E00E94E109CF91DF910895DF93CF9370
:1032700000D0CDB7DEB789836A838A81882359F06D
:1032800081E064E040E00E94F30881E065E041E015
:103290000E94F3080AC081E064E041E00E94F30864
:1032A00081E065E040E00E94F3088981982F9170E9
:1032B00081E060E0492F0E94F3088981882F90E027
:1032C0008270907095958795982F81E061E0492FE5
:1032D0000E94F3088981882F90E084709070959502
:1032E000879595958795982F81E066E0492F0E94F4
:1032F000F3088981882F90E0887090709595879564
:103300009595879595958795982F81E067E0492F4A
:103310000E94F3080F900F90CF91DF910895DF93F3
:10332000CF9300D00F92CDB7DEB789838981282F44
:1033300030E03B832A838A819B818630910509F4A2
:1033400043C02A813B812730310534F48A819B8137
:103350008530910571F0D0C02A813B81273031053D
:1033600009F490C08A819B818830910509F45BC083
:10337000C3C0A3E5B0E0E3E5F0E080818E7F8C93ED
:10338000A3E5B0E0E3E5F0E0808182608C93A3E503
:10339000B0E0E3E5F0E080818B7F8C93A9E5B0E0BD
:1033A000E9E5F0E0808181608C93A3E5B0E0E3E59E
:1033B000F0E080818F7B8C93A3E5B0E0E3E5F0E063
:1033C0008081877F8C9398C0A3E5B0E0E3E5F0E0CF
:1033D00080818E7F8C93A3E5B0E0E3E5F0E080810F
:1033E00082608C93A3E5B0E0E3E5F0E080818B7F21
:1033F0008C93A9E5B0E0E9E5F0E0808182608C93F0
:10340000A3E5B0E0E3E5F0E080818F7B8C93A3E55A
:10341000B0E0E3E5F0E0808188608C93ECE5F0E0DB
:1034200080E8808369C0A3E5B0E0E3E5F0E0808157
:103430008E7F8C93A3E5B0E0E3E5F0E080818260CD
:103440008C93A3E5B0E0E3E5F0E080818B7F8C9383
:10345000A9E5B0E0E9E5F0E0808182608C93A3E526
:10346000B0E0E3E5F0E080818F7B8C93A3E5B0E0F2
:10347000E3E5F0E0808188608C93ECE5F0E080E8A3
:1034800080833AC0A3E5B0E0E3E5F0E080818E7F81
:103490008C93A3E5B0E0E3E5F0E0808182608C935B
:1034A000A3E5B0E0E3E5F0E080818B7F8C93A3E5BA
:1034B000B0E0E3E5F0E0808180648C93A3E5B0E0C8
:1034C000E3E5F0E0808188608C9381E063E041E097
:1034D0000E94E109A3E5B0E0E3E5F0E080818061CE
:1034E0008C93A3E5B0E0E3E5F0E0808180628C930B
:1034F000ECE5F0E08CE380830F900F900F90CF917C
:10350000DF9108951F920F920FB60F9211242F93FF
:103510003F934F935F936F937F938F939F93AF935B
:10352000BF93EF93FF93DF93CF93CDB7DEB780E0E8
:103530000E942017CF91DF91FF91EF91BF91AF9142
:103540009F918F917F916F915F914F913F912F91BB
:103550000F900FBE0F901F9018951F920F920FB6ED
:103560000F9211242F933F934F935F936F937F9309
:103570008F939F93AF93BF93EF93FF93DF93CF937B
:10358000CDB7DEB781E00E942017CF91DF91FF9188
:10359000EF91BF91AF919F918F917F916F915F91CB
:1035A0004F913F912F910F900FBE0F901F90189544
:1035B0001F920F920FB60F9211242F933F934F93A8
:1035C0005F936F937F938F939F93AF93BF93EF938B
:1035D000FF93DF93CF93CDB7DEB7809173009091C7
:1035E0007400A0917500B09176000196A11DB11DE7
:1035F0008093730090937400A0937500B09376004D
:103600008091730090917400A0917500B091760044
:10361000883E21E0920720E0A20720E0B20759F49B
:103620001092730010927400109275001092760040
:1036300080E00E942017CF91DF91FF91EF91BF9121
:10364000AF919F918F917F916F915F914F913F913A
:103650002F910F900FBE0F901F9018951F920F92F1
:103660000FB60F9211240F931F932F933F934F93F5
:103670005F936F937F938F939F93AF93BF93EF93DA
:10368000FF93DF93CF93CDB7DEB7EC97DEBFCDBF0F
:103690000E94A406CC01A0E0B0E089AB9AABABAB32
:1036A000BCAB89A99AA9ABA9BCA924EF31E040E041
:1036B00050E0BC01CD010E94031FDC01CB012FEFC4
:1036C00033E040E050E0BC01CD010E94221FDA014E
:1036D000C9018DA79EA7AFA7B8AB84E08CA731C066
:1036E0008CA5882F90E08C010150104089A99AA9DF
:1036F000ABA9BCA92AE030E040E050E0BC01CD011C
:103700000E94221FDC01CB01282F205DCE01C5962F
:10371000FC01E00FF11F208389A99AA9ABA9BCA9DC
:103720002AE030E040E050E0BC01CD010E94221FC1
:10373000DA01C90189AB9AABABABBCAB8CA58150AC
:103740008CA78CA5882361F683E08CA730C08CA55C
:10375000882F90E08C01015010408DA59EA5AFA54B
:10376000B8A92AE030E040E050E0BC01CD010E9461
:10377000221FDC01CB01282FCE01C996FC01E00FEE
:10378000F11F20838DA59EA5AFA5B8A92AE030E042
:1037900040E050E0BC01CD010E94221FDA01C901C6
:1037A0008DA79EA7AFA7B8AB8CA581508CA78CA581
:1037B000882369F61CA60EC08CA5282F30E0CE0108
:1037C000C596FC01E20FF31F80810E94210E8CA59B
:1037D0008F5F8CA78CA5843078F31BA6EFC089ADD2
:1037E00061E00E94361980E090E0A0E2B1E48FA38E
:1037F00098A7A9A7BAA76FA178A589A59AA520E03F
:1038000030E04AE753E40E941F02DC01CB018BA3A6
:103810009CA3ADA3BEA36BA17CA18DA19EA120E022
:1038200030E040E85FE30E94790388232CF481E0D4
:1038300090E09AA389A33FC06BA17CA18DA19EA11A
:1038400020E03FEF4FE757E40E94190318164CF5AC
:103850006FA178A589A59AA520E030E040E251E467
:103860000E941F02DC01CB01BC01CD010E94490076
:10387000DC01CB019AA389A30FC089E190E098A352
:103880008F8F8F8D98A10197F1F798A38F8F89A1C2
:103890009AA101979AA389A389A19AA1009769F790
:1038A00014C06BA17CA18DA19EA10E944900DC01E6
:1038B000CB019AA389A389A19AA19E8F8D8F8D8D0B
:1038C0009E8D0197F1F79E8F8D8F8AAD60E00E94EB
:1038D000361980E090E0A0E2B1E4898F9A8FAB8F37
:1038E000BC8F698D7A8D8B8D9C8D20E030E04AE70E
:1038F00053E40E941F02DC01CB018D8B9E8BAF8BAA
:10390000B88F6D897E898F89988D20E030E040E8FE
:103910005FE30E94790388232CF481E090E09C8B84
:103920008B8B3FC06D897E898F89988D20E03FEF1A
:103930004FE757E40E94190318164CF5698D7A8DEC
:103940008B8D9C8D20E030E040E251E40E941F020C
:10395000DC01CB01BC01CD010E944900DC01CB019F
:103960009C8B8B8B0FC089E190E09A8B898B898926
:103970009A890197F1F79A8B898B8B899C8901979A
:103980009C8B8B8B8B899C89009769F714C06D8900
:103990007E898F89988D0E944900DC01CB019C8B28
:1039A0008B8B8B899C89988B8F878F8598890197C2
:1039B000F1F7988B8F878BA58F5F8BA78BA58233B1
:1039C00008F40DCF80E090E0A8ECB2E48B879C87F0
:1039D000AD87BE876B857C858D859E8520E030E038
:1039E0004AE753E40E941F02DC01CB018F839887D2
:1039F000A987BA876F81788589859A8520E030E02C
:103A000040E85FE30E94790388232CF481E090E092
:103A10009E838D833FC06F81788589859A8520E05C
:103A20003FEF4FE757E40E94190318164CF56B85DA
:103A30007C858D859E8520E030E040E251E40E9447
:103A40001F02DC01CB01BC01CD010E944900DC0159
:103A5000CB019E838D830FC089E190E09C838B8393
:103A60008B819C810197F1F79C838B838D819E8153
:103A700001979E838D838D819E81009769F714C085
:103A80006F81788589859A850E944900DC01CB0188
:103A90009E838D838D819E819A83898389819A817A
:103AA0000197F1F79A8389830E94620FEC96DEBF3B
:103AB000CDBFCF91DF91FF91EF91BF91AF919F91DA
:103AC0008F917F916F915F914F913F912F911F91B6
:103AD0000F910F900FBE0F901F9018951F920F928D
:103AE0000FB60F9211242F933F934F935F936F93D1
:103AF0007F938F939F93AF93BF93EF93FF93DF9346
:103B0000CF93CDB7DEB70E940807CF91DF91FF9129
:103B1000EF91BF91AF919F918F917F916F915F9145
:103B20004F913F912F910F900FBE0F901F901895BE
:103B30001F920F920FB60F9211242F933F934F9322
:103B40005F936F937F938F939F93AF93BF93EF9305
:103B5000FF93DF93CF93CDB7DEB780917300909141
:103B60007400A0917500B09176000196A11DB11D61
:103B70008093730090937400A0937500B0937600C7
:103B80008091730090917400A0917500B0917600BF
:103B9000813722E0920720E0A20720E0B20759F423
:103BA00010927300109274001092750010927600BB
:103BB00080E00E942017CF91DF91FF91EF91BF919C
:103BC000AF919F918F917F916F915F914F913F91B5
:103BD0002F910F900FBE0F901F901895DF93CF93EA
:103BE000CDB7DEB76C970FB6F894DEBF0FBECDBF72
:103BF0000E94E80680E00E94E41681E00E94E4163C
:103C000080E00E94CF0AAFE5B0E0EFE5F0E0808110
:103C100080688C9383E066E041E00E94E10983E0E4
:103C200066E040E00E94F30880E090E0A8ECB2E497
:103C3000898F9A8FAB8FBC8F698D7A8D8B8D9C8D80
:103C400020E030E04AE753E40E941F02DC01CB0190
:103C50008D8B9E8BAF8BB88F6D897E898F89988D68
:103C600020E030E040E85FE30E94790388232CF4F1
:103C700081E090E09C8B8B8B3FC06D897E898F8922
:103C8000988D20E03FEF4FE757E40E941903181684
:103C90004CF5698D7A8D8B8D9C8D20E030E040E273
:103CA00051E40E941F02DC01CB01BC01CD010E9446
:103CB0004900DC01CB019C8B8B8B0FC089E190E02C
:103CC0009A8B898B89899A890197F1F79A8B898BCD
:103CD0008B899C8901979C8B8B8B8B899C89009706
:103CE00069F714C06D897E898F89988D0E9449007B
:103CF000DC01CB019C8B8B8B8B899C89988B8F876C
:103D00008F8598890197F1F7988B8F8783E066E01C
:103D100041E00E94F30880E090E0A8ECB2E48B87D9
:103D20009C87AD87BE876B857C858D859E8520E0D1
:103D300030E04AE753E40E941F02DC01CB018F838D
:103D40009887A987BA876F81788589859A8520E0C9
:103D500030E040E85FE30E94790388232CF481E09F
:103D600090E09E838D833FC06F81788589859A8599
:103D700020E03FEF4FE757E40E94190318164CF577
:103D80006B857C858D859E8520E030E040E251E4A6
:103D90000E941F02DC01CB01BC01CD010E94490041
:103DA000DC01CB019E838D830FC089E190E09C8371
:103DB0008B838B819C810197F1F79C838B838D8111
:103DC0009E8101979E838D838D819E81009769F7E7
:103DD00014C06F81788589859A850E944900DC012D
:103DE000CB019E838D838D819E819A838983898176
:103DF0009A810197F1F79A83898383E066E040E036
:103E00000E94F30811CF629FD001739FF001829F3F
:103E1000E00DF11D649FE00DF11D929FF00D839F59
:103E2000F00D749FF00D659FF00D9927729FB00DF6
:103E3000E11DF91F639FB00DE11DF91FBD01CF0109
:103E400011240895A1E21A2EAA1BBB1BFD010DC06F
:103E5000AA1FBB1FEE1FFF1FA217B307E407F5073A
:103E600020F0A21BB30BE40BF50B661F771F881F16
:103E7000991F1A9469F760957095809590959B01AC
:103E8000AC01BD01CF0108952F923F924F925F92F6
:103E90006F927F928F929F92AF92BF92CF92DF925A
:103EA000EF92FF920F931F93CF93DF93CDB7DEB7BF
:103EB000CA1BDB0B0FB6F894DEBF0FBECDBF099453
:103EC0002A88398848885F846E847D848C849B84AA
:103ED000AA84B984C884DF80EE80FD800C811B81B8
:103EE000AA81B981CE0FD11D0FB6F894DEBF0FBEE7
:0A3EF000CDBFED010895F894FFCF57
:103EFA0000000000000000001C1C1C1C1C1C1C1CD8
:00000001FF
