:100000000C942A000C9447000C9447000C94470071
:100010000C9447000C9447000C9447000C94470044
:100020000C9447000C9447000C9447000C94470034
:100030000C9447000C9447000C9447000C94470024
:100040000C9447000C9447000C9447000C94470014
:100050000C94470011241FBECFE5D4E0DEBFCDBF16
:1000600010E0A0E6B0E0E4E5FCE302C005900D92EC
:10007000AC38B107D9F710E0ACE8B0E001C01D9290
:10008000AF38B107E1F70E94E31D0C94281E0C94D1
:100090000000EF92FF920F931F937B018C0120E0F1
:1000A00030E040E05FE40E94490388238CF0C801FF
:1000B000B70120E030E040E05FE40E94C1010E940F
:1000C000A9039B01AC01205030404040504806C07D
:1000D000C801B7010E94A9039B01AC01B901CA0183
:1000E0001F910F91FF90EF900895A0E0B0E0EBE733
:1000F000F0E00C94F11DDC012B01FA019C9192308F
:1001000008F439C1EB018881823008F433C194309E
:1001100069F4843009F02FC111969C91119789815F
:10012000981709F428C1A3E7B0E025C1843009F489
:1001300021C18230A9F4923009F01DC19A01AD01AC
:1001400088E0EA010990AE01E90109929E0181501F
:10015000C1F7E201898111969C918923818308C1AD
:10016000923009F407C112962D903C901397EB0141
:100170008A819B811496AD90BD90CD90DC901797AD
:10018000EC80FD800E811F819101281B390BB90184
:1001900037FF04C066277727621B730B6032710537
:1001A0000CF061C0121613066CF537014801062EDB
:1001B00004C096948794779467940A94D2F721E0C8
:1001C00030E040E050E004C0220F331F441F551FB1
:1001D0006A95D2F721503040404050402E213F21B7
:1001E00040235123211531054105510521F021E01E
:1001F00030E040E050E079018A01E628F72808293C
:1002000019293CC0232BD1F1260E371E350146019A
:10021000062E04C096948794779467940A94D2F734
:1002200021E030E040E050E004C0220F331F441FC3
:10023000551F6A95D2F721503040404050402A2146
:100240003B214C215D21211531054105510521F04E
:1002500021E030E040E050E059016A01A628B728CB
:10026000C828D9280BC0821593052CF01C01AA249C
:10027000BB24650103C0EE24FF24870111969C91E5
:10028000D20111968C91981709F445C0992339F041
:10029000A80197012A193B094C095D0906C0A6016E
:1002A00095012E193F09400B510B57FD08C01182D3
:1002B0003382228224833583468357831DC081E0A5
:1002C00081833382228288279927DC01821B930B4A
:1002D000A40BB50B84839583A683B7830DC0220F2F
:1002E000331F441F551F24833583468357838281E0
:1002F000938101979383828324813581468157813D
:10030000DA01C9010197A109B1098F5F9F4FAF4F72
:10031000BF4328F30BC0918333822282EA0CFB1C7B
:100320000C1D1D1DE482F5820683178383E0808304
:10033000248135814681578157FF1AC0C901AA27F8
:1003400097FDA095BA2F81709070A070B0705695EF
:10035000479537952795822B932BA42BB52B848318
:100360009583A683B7838281938101969383828349
:10037000DF0101C0D201CD01CDB7DEB7E2E10C94BF
:100380000D1EA0E2B0E0E7ECF1E00C94FD1D6983E6
:100390007A838B839C832D833E834F835887E9E048
:1003A000EE2EF12CEC0EFD1ECE010196B7010E943F
:1003B000D2048E010F5E1F4FCE010596B8010E9438
:1003C000D2048A8991E089278A8BC701B801AE01DE
:1003D000475E5F4F0E9475000E94FD03A096E6E015
:1003E0000C94191EA0E2B0E0E8EFF1E00C94FD1DC2
:1003F00069837A838B839C832D833E834F835887C5
:10040000F9E0EF2EF12CEC0EFD1ECE010196B701A6
:100410000E94D2048E010F5E1F4FCE010596B801D7
:100420000E94D204C701B801AE01475E5F4F0E942F
:1004300075000E94FD03A096E6E00C94191EA0E250
:10044000B0E0E5E2F2E00C94F11D69837A838B83DE
:100450009C832D833E834F835887CE010196BE0136
:10046000675F7F4F0E94D204CE010596BE016F5E8A
:100470007F4F0E94D2049985923088F0898982301A
:10048000C8F0943019F4823051F404C0843029F457
:10049000923081F483E790E0C6C0923049F420E0C6
:1004A0009A858A89981321E02A87CE010996BBC0D4
:1004B000823049F420E09A858A89981321E02A8BBA
:1004C000CE014196B0C02D843E844F8458886D88FB
:1004D0007E888F88988CEE24FF248701AA24BB2471
:1004E000650140E050E060E070E0E0E0F0E0C10174
:1004F00081709070892BE9F0E60CF71C081D191D1E
:100500009A01AB012A0D3B1D4C1D5D1D80E090E062
:10051000A0E0B0E0E614F7040805190520F481E036
:1005200090E0A0E0B0E0BA01A901480F591F6A1F8E
:100530007B1FAA0CBB1CCC1CDD1C97FE08C081E0F5
:1005400090E0A0E0B0E0A82AB92ACA2ADB2A3196B6
:10055000E032F10549F0660C771C881C991C569412
:10056000479437942794C3CFFA85EA892B893C892D
:100570008B859C85280F391F2E5F3F4F17C0CA01FE
:1005800081709070892B61F016950795F794E79428
:1005900080E090E0A0E0B0E8E82AF92A0A2B1B2BC3
:1005A00076956795579547952F5F3F4F77FDE7CF36
:1005B0000CC0440F551F661F771F17FD4160EE0CDE
:1005C000FF1C001F111F21503040403090E05907A0
:1005D00090E0690790E4790760F32B8F3C8FDB0193
:1005E000CA018F779070A070B07080349105A1051A
:1005F000B10561F447FD0AC0E114F10401051105DC
:1006000029F0405C5F4F6F4F7F4F40781A8EFE1786
:1006100011F081E08A8F4D8F5E8F6F8F78A383E01A
:10062000898FCE0149960E94FD03A096E2E10C94C9
:100630000D1EA8E1B0E0EFE1F3E00C94FD1D69832D
:100640007A838B839C832D833E834F83588789E0F5
:10065000E82EF12CEC0EFD1ECE010196B7010E9492
:10066000D2048E010F5E1F4FCE010596B8010E9485
:10067000D2048985823040F08989823028F0C70110
:10068000B8010E944A0501C08FEF6896E6E00C941D
:10069000191EA8E1B0E0EFE4F3E00C94FD1D6983BE
:1006A0007A838B839C832D833E834F83588789E095
:1006B000E82EF12CEC0EFD1ECE010196B7010E9432
:1006C000D2048E010F5E1F4FCE010596B8010E9425
:1006D000D2048985823040F08989823028F0C701B0
:1006E000B8010E944A0501C08FEF6896E6E00C94BD
:1006F000191EA8E1B0E0EFE7F3E00C94FD1D69835B
:100700007A838B839C832D833E834F83588789E034
:10071000E82EF12CEC0EFD1ECE010196B7010E94D1
:10072000D2048E010F5E1F4FCE010596B8010E94C4
:10073000D2048985823040F08989823028F0C7014F
:10074000B8010E944A0501C081E06896E6E00C9479
:10075000191EACE0B0E0EFEAF3E00C94011E6983EF
:100760007A838B839C83CE010196BE016B5F7F4FA2
:100770000E94D2048D81823061F1823050F1843048
:1007800021F48E81882351F12EC02F81388537FDC9
:1007900020C06E812F3131051CF06623F9F023C093
:1007A0008EE190E0821B930B29853A854B855C8511
:1007B00004C056954795379527958A95D2F76623B5
:1007C000B1F050954095309521953F4F4F4F5F4F79
:1007D0000EC020E030E040E050E009C02FEF3FEFD6
:1007E0004FEF5FE704C020E030E040E050E8B9019F
:1007F000CA012C96E2E00C941D1EDF92EF92FF924C
:100800000F931F93FC01E480F58006811781D1804E
:100810008081823048F480E090E0A0E1B0E0E82AF6
:10082000F92A0A2B1B2BA5C0843009F49FC0823003
:1008300021F4EE24FF24870105C0E114F104010531
:10084000110519F4E0E0F0E096C0628173819FEF3A
:10085000623879070CF05BC022E83FEF261B370BAC
:100860002A3131052CF020E030E040E050E02AC091
:10087000B801A701022E04C0769567955795479554
:100880000A94D2F781E090E0A0E0B0E004C0880FC5
:10089000991FAA1FBB1F2A95D2F70197A109B10979
:1008A0008E219F21A023B1230097A105B10521F03E
:1008B00081E090E0A0E0B0E09A01AB01282B392B59
:1008C0004A2B5B2BDA01C9018F779070A070B07052
:1008D00080349105A105B10539F427FF09C0205CDA
:1008E0003F4F4F4F5F4F04C0215C3F4F4F4F5F4F13
:1008F000E0E0F0E02030A0E03A07A0E04A07A0E402
:100900005A0710F0E1E0F0E079018A0127C0603871
:10091000710564F5FB01E158FF4FD801C7018F77DE
:100920009070A070B07080349105A105B10539F4C4
:10093000E7FE0DC080E490E0A0E0B0E004C08FE3EB
:1009400090E0A0E0B0E0E80EF91E0A1F1B1F17FFA1
:1009500005C016950795F794E794319687E01695AC
:100960000795F794E7948A95D1F705C0EE24FF2404
:100970008701EFEFF0E06E2F679566276795902F60
:100980009F77D794DD24D7948E2F8695492F462BB9
:10099000582F5D29B701CA011F910F91FF90EF9069
:1009A000DF900895FC01DB01408151812281622F9B
:1009B0006F7770E0221F2227221F9381892F880FD3
:1009C000822B282F30E0991F9927991F11969C930D
:1009D000119721153105A9F54115510561057105DD
:1009E00011F482E037C082E89FEF13969C938E93B8
:1009F00012979A01AB0167E0220F331F441F551F66
:100A00006A95D1F783E08C930DC0220F331F441FEA
:100A1000551F12968D919C911397019713969C9355
:100A20008E931297203080E0380780E0480780E4FA
:100A3000580758F314962D933D934D935C93179755
:100A400008952F3F310579F4411551056105710570
:100A500019F484E08C93089564FF03C081E08C93C3
:100A600012C01C9210C02F57304013963C932E9307
:100A7000129783E08C9387E0440F551F661F771F02
:100A80008A95D1F7706414964D935D936D937C9322
:100A9000179708951F93DC01FB019C91923008F495
:100AA00047C08081823008F443C0943051F41196DD
:100AB0001C91843099F58181682F70E0611B710968
:100AC0003FC0843021F0923031F48230B9F181811D
:100AD000882389F12DC011961C9111978230F1F075
:100AE00081811817D9F412962D913C911397828128
:100AF00093818217930794F028173907BCF0149656
:100B00008D919D910D90BC91A02D248135814681C0
:100B10005781281739074A075B0718F4112341F05A
:100B20000AC082179307A407B50740F4112319F0F0
:100B300061E070E005C06FEF7FEF02C060E070E041
:100B4000CB011F910895DF93CF93CDB7DEB7AAE312
:100B5000B0E0EAE3F0E080818F708C93AAE3B0E02C
:100B6000EAE3F0E08081807F8C93A7E3B0E0E7E3E5
:100B7000F0E080818F708C93A7E3B0E0E7E3F0E0D2
:100B80008081807F8C93A4E3B0E0E4E3F0E0808197
:100B90008F708C93A4E3B0E0E4E3F0E08081807F89
:100BA0008C93A1E3B0E0E1E3F0E080818F708C935F
:100BB000A1E3B0E0E1E3F0E08081807F8C93CF910E
:100BC000DF910895DF93CF9300D000D00F92CDB77F
:100BD000DEB78A836B838A81282F30E03D832C83A4
:100BE0004C815D8141305105B1F18C819D81823014
:100BF000910534F42C813D812115310571F084C0BB
:100C00004C815D814230510509F443C08C819D8146
:100C10008330910509F45BC077C0E9E3F0E080819F
:100C2000482F50E08B81282F30E081E090E002C017
:100C3000880F991F2A95E2F79A01282339238B817F
:100C4000882F90E0A90102C0559547958A95E2F753
:100C5000CA01898359C0E6E3F0E08081482F50E063
:100C60008B81282F30E081E090E002C0880F991F2F
:100C70002A95E2F79A01282339238B81882F90E067
:100C8000A90102C0559547958A95E2F7CA01898363
:100C90003BC0E3E3F0E08081482F50E08B81282FB8
:100CA00030E081E090E002C0880F991F2A95E2F7BA
:100CB0009A01282339238B81882F90E0A90102C053
:100CC000559547958A95E2F7CA0189831DC0E0E3EF
:100CD000F0E08081482F50E08B81282F30E081E0C8
:100CE00090E002C0880F991F2A95E2F79A01282305
:100CF00039238B81882F90E0A90102C05595479533
:100D00008A95E2F7CA01898389810F900F900F902D
:100D10000F900F90CF91DF910895DF93CF9300D084
:100D200000D00F92CDB7DEB789836A834B83898168
:100D3000282F30E03D832C838C819D81813091056B
:100D400009F446C02C813D81223031052CF48C8180
:100D50009D81009771F0C7C02C813D812230310503
:100D600009F465C08C819D818330910509F48EC0A2
:100D7000BAC08B818823A1F4ABE3B0E0EBE3F0E0F1
:100D80008081482F8A81282F30E081E090E0022E78
:100D900002C0880F991F0A94E2F7809584238C93F0
:100DA0008B81813009F09FC0ABE3B0E0EBE3F0E072
:100DB0008081482F8A81282F30E081E090E0022E48
:100DC00002C0880F991F0A94E2F7842B8C938BC082
:100DD0008B818823A1F4A8E3B0E0E8E3F0E0808110
:100DE000482F8A81282F30E081E090E0022E02C057
:100DF000880F991F0A94E2F7809584238C938B8146
:100E0000813009F070C0A8E3B0E0E8E3F0E0808151
:100E1000482F8A81282F30E081E090E0022E02C026
:100E2000880F991F0A94E2F7842B8C935CC08B8106
:100E30008823A1F4A5E3B0E0E5E3F0E08081482F4A
:100E40008A81282F30E081E090E0022E02C0880FD6
:100E5000991F0A94E2F7809584238C938B818130CB
:100E600009F041C0A5E3B0E0E5E3F0E08081482F60
:100E70008A81282F30E081E090E0022E02C0880FA6
:100E8000991F0A94E2F7842B8C932DC08B818823C1
:100E9000A1F4A2E3B0E0E2E3F0E08081482F8A8190
:100EA000282F30E081E090E0022E02C0880F991FC9
:100EB0000A94E2F7809584238C938B81813099F496
:100EC000A2E3B0E0E2E3F0E08081482F8A81282F9E
:100ED00030E081E090E0022E02C0880F991F0A9452
:100EE000E2F7842B8C930F900F900F900F900F9040
:100EF000CF91DF910895DF93CF9300D000D00F9270
:100F0000CDB7DEB789836A834B838981282F30E090
:100F10003D832C838C819D818130910509F446C0ED
:100F20002C813D81223031052CF48C819D810097EC
:100F300071F0C7C02C813D812230310509F465C0B4
:100F40008C819D818330910509F48EC0BAC08B815C
:100F50008823A1F4AAE3B0E0EAE3F0E08081482F1F
:100F60008A81282F30E081E090E0022E02C0880FB5
:100F7000991F0A94E2F7809584238C938B818130AA
:100F800009F09FC0AAE3B0E0EAE3F0E08081482FD7
:100F90008A81282F30E081E090E0022E02C0880F85
:100FA000991F0A94E2F7842B8C938BC08B81882342
:100FB000A1F4A7E3B0E0E7E3F0E08081482F8A8165
:100FC000282F30E081E090E0022E02C0880F991FA8
:100FD0000A94E2F7809584238C938B81813009F009
:100FE00070C0A7E3B0E0E7E3F0E08081482F8A819A
:100FF000282F30E081E090E0022E02C0880F991F78
:101000000A94E2F7842B8C935CC08B818823A1F433
:10101000A4E3B0E0E4E3F0E08081482F8A81282F48
:1010200030E081E090E0022E02C0880F991F0A9400
:10103000E2F7809584238C938B81813009F041C045
:10104000A4E3B0E0E4E3F0E08081482F8A81282F18
:1010500030E081E090E0022E02C0880F991F0A94D0
:10106000E2F7842B8C932DC08B818823A1F4A1E31C
:10107000B0E0E1E3F0E08081482F8A81282F30E062
:1010800081E090E0022E02C0880F991F0A94E2F7D7
:10109000809584238C938B81813099F4A1E3B0E017
:1010A000E1E3F0E08081482F8A81282F30E081E061
:1010B00090E0022E02C0880F991F0A94E2F7842B59
:1010C0008C930F900F900F900F900F90CF91DF9116
:1010D0000895DF93CF93CDB7DEB76D970FB6F89431
:1010E000DEBF0FBECDBF8D8F83E060E040E00E9489
:1010F0008D06A5E3B0E0E5E3F0E08081282F2F70B6
:101100008D8D82958F70882F90E09070829592954A
:10111000907F9827807F9827822B8C9383E061E0D3
:1011200041E00E948D0680E090E0A0E0B0E4898F6D
:101130009A8FAB8FBC8F698D7A8D8B8D9C8D20E0C3
:1011400030E04AE753E40E941F02DC01CB018D8BA3
:101150009E8BAF8BB88F6D897E898F89988D20E0AB
:1011600030E040E85FE30E94790388232CF481E0BB
:1011700090E09C8B8B8B3FC06D897E898F89988D89
:1011800020E03FEF4FE757E40E94190318164CF593
:10119000698D7A8D8B8D9C8D20E030E040E251E4AA
:1011A0000E941F02DC01CB01BC01CD010E9449005D
:1011B000DC01CB019C8B8B8B0FC089E190E09A8B7B
:1011C000898B89899A890197F1F79A8B898B8B8909
:1011D0009C8901979C8B8B8B8B899C89009769F7E5
:1011E00014C06D897E898F89988D0E944900DC0129
:1011F000CB019C8B8B8B8B899C89988B8F878F8560
:1012000098890197F1F7988B8F8783E061E040E040
:101210000E948D06A5E3B0E0E5E3F0E08081282F91
:101220002F708D8D882F90E08F70907082959295A1
:10123000907F9827807F9827822B8C9383E061E0B2
:1012400041E00E948D0680E090E0A0E0B0E48B8752
:101250009C87AD87BE876B857C858D859E8520E0CC
:1012600030E04AE753E40E941F02DC01CB018F8388
:101270009887A987BA876F81788589859A8520E0C4
:1012800030E040E85FE30E94790388232CF481E09A
:1012900090E09E838D833FC06F81788589859A8594
:1012A00020E03FEF4FE757E40E94190318164CF572
:1012B0006B857C858D859E8520E030E040E251E4A1
:1012C0000E941F02DC01CB01BC01CD010E9449003C
:1012D000DC01CB019E838D830FC089E190E09C836C
:1012E0008B838B819C810197F1F79C838B838D810C
:1012F0009E8101979E838D838D819E81009769F7E2
:1013000014C06F81788589859A850E944900DC0127
:10131000CB019E838D838D819E819A838983898170
:101320009A810197F1F79A83898383E061E040E035
:101330000E948D066D960FB6F894DEBF0FBECDBF2E
:10134000CF91DF910895DF93CF93CDB7DEB7AA9702
:101350000FB6F894DEBF0FBECDBF80E090E0A8E4EA
:10136000B2E48FA398A7A9A7BAA76FA178A589A56A
:101370009AA520E030E04AE753E40E941F02DC0116
:10138000CB018BA39CA3ADA3BEA36BA17CA18DA11C
:101390009EA120E030E040E85FE30E9479038823CB
:1013A0002CF481E090E09AA389A33FC06BA17CA1BB
:1013B0008DA19EA120E03FEF4FE757E40E94190363
:1013C00018164CF56FA178A589A59AA520E030E004
:1013D00040E251E40E941F02DC01CB01BC01CD01BF
:1013E0000E944900DC01CB019AA389A30FC089E1C7
:1013F00090E098A38F8F8F8D98A10197F1F798A314
:101400008F8F89A19AA101979AA389A389A19AA1F3
:10141000009769F714C06BA17CA18DA19EA10E94C9
:101420004900DC01CB019AA389A389A19AA19E8FCF
:101430008D8F8D8D9E8D0197F1F79E8F8D8F82E020
:101440000E94690888E20E94690880E090E0A0E2BA
:10145000B1E4898F9A8FAB8FBC8F698D7A8D8B8D1C
:101460009C8D20E030E04AE753E40E941F02DC013B
:10147000CB018D8B9E8BAF8BB88F6D897E898F89C9
:10148000988D20E030E040E85FE30E9479038823F4
:101490002CF481E090E09C8B8B8B3FC06D897E8922
:1014A0008F89988D20E03FEF4FE757E40E941903A2
:1014B00018164CF5698D7A8D8B8D9C8D20E030E06F
:1014C00040E251E40E941F02DC01CB01BC01CD01CE
:1014D0000E944900DC01CB019C8B8B8B0FC089E102
:1014E00090E09A8B898B89899A890197F1F79A8B79
:1014F000898B8B899C8901979C8B8B8B8B899C8991
:10150000009769F714C06D897E898F89988D0E9434
:101510004900DC01CB019C8B8B8B8B899C89988B40
:101520008F878F8598890197F1F7988B8F878CE04B
:101530000E94690880E090E0A0E2B1E48B879C877C
:10154000AD87BE876B857C858D859E8520E030E0EC
:101550004AE753E40E941F02DC01CB018F83988786
:10156000A987BA876F81788589859A8520E030E0E0
:1015700040E85FE30E94790388232CF481E090E047
:101580009E838D833FC06F81788589859A8520E011
:101590003FEF4FE757E40E94190318164CF56B858F
:1015A0007C858D859E8520E030E040E251E40E94FC
:1015B0001F02DC01CB01BC01CD010E944900DC010E
:1015C000CB019E838D830FC089E190E09C838B8348
:1015D0008B819C810197F1F79C838B838D819E8108
:1015E00001979E838D838D819E81009769F714C03A
:1015F0006F81788589859A850E944900DC01CB013D
:101600009E838D838D819E819A83898389819A812E
:101610000197F1F79A8389830E945B0C81E00E9415
:10162000550EAA960FB6F894DEBF0FBECDBFCF9170
:10163000DF910895DF93CF93CDB7DEB76D970FB6E7
:10164000F894DEBF0FBECDBF8D8FA2E3B0E0E2E322
:10165000F0E0808181608C93A5E3B0E0E5E3F0E009
:101660008081282F2F708D8D82958F70882F90E02C
:10167000907082959295907F9827807F9827822BF3
:101680008C9383E061E041E00E948D0680E090E071
:10169000A0EAB1E4898F9A8FAB8FBC8F698D7A8D68
:1016A0008B8D9C8D20E030E04AE753E40E941F02BE
:1016B000DC01CB018D8B9E8BAF8BB88F6D897E89C2
:1016C0008F89988D20E030E040E85FE30E94790345
:1016D00088232CF481E090E09C8B8B8B3FC06D893C
:1016E0007E898F89988D20E03FEF4FE757E40E9475
:1016F000190318164CF5698D7A8D8B8D9C8D20E021
:1017000030E040E251E40E941F02DC01CB01BC0149
:10171000CD010E944900DC01CB019C8B8B8B0FC05B
:1017200089E190E09A8B898B89899A890197F1F7F1
:101730009A8B898B8B899C8901979C8B8B8B8B894E
:101740009C89009769F714C06D897E898F89988D6F
:101750000E944900DC01CB019C8B8B8B8B899C897F
:10176000988B8F878F8598890197F1F7988B8F8752
:1017700083E061E040E00E948D06A5E3B0E0E5E390
:10178000F0E08081282F2F708D8D882F90E08F7052
:10179000907082959295907F9827807F9827822BD2
:1017A0008C9383E061E041E00E948D0680E090E050
:1017B000A0EAB1E48B879C87AD87BE876B857C856B
:1017C0008D859E8520E030E04AE753E40E941F02A9
:1017D000DC01CB018F839887A987BA876F817885D1
:1017E00089859A8520E030E040E85FE30E94790334
:1017F00088232CF481E090E09E838D833FC06F812D
:10180000788589859A8520E03FEF4FE757E40E946D
:10181000190318164CF56B857C858D859E8520E017
:1018200030E040E251E40E941F02DC01CB01BC0128
:10183000CD010E944900DC01CB019E838D830FC046
:1018400089E190E09C838B838B819C810197F1F7E8
:101850009C838B838D819E8101979E838D838D8157
:101860009E81009769F714C06F81788589859A8574
:101870000E944900DC01CB019E838D838D819E8176
:101880009A83898389819A810197F1F79A83898361
:1018900083E061E040E00E948D0680918E008F5FC2
:1018A00080938E006D960FB6F894DEBF0FBECDBF4D
:1018B000CF91DF910895DF93CF93CDB7DEB72E9709
:1018C0000FB6F894DEBF0FBECDBF81E00E9469085D
:1018D00080E090E0A0EAB1E48B879C87AD87BE876B
:1018E0006B857C858D859E8520E030E04AE753E45A
:1018F0000E941F02DC01CB018F839887A987BA87DA
:101900006F81788589859A8520E030E040E85FE343
:101910000E94790388232CF481E090E09E838D83DC
:101920003FC06F81788589859A8520E03FEF4FE73A
:1019300057E40E94190318164CF56B857C858D853C
:101940009E8520E030E040E251E40E941F02DC016D
:10195000CB01BC01CD010E944900DC01CB019E837B
:101960008D830FC089E190E09C838B838B819C8168
:101970000197F1F79C838B838D819E8101979E83D4
:101980008D838D819E81009769F714C06F81788562
:1019900089859A850E944900DC01CB019E838D8355
:1019A0008D819E819A83898389819A810197F1F73C
:1019B0009A83898310928C002E960FB6F894DEBF1E
:1019C0000FBECDBFCF91DF910895DF93CF9300D0AD
:1019D000CDB7DEB789836A838A81882329F089811C
:1019E000805C80938E0003C0898180938E008091FB
:1019F0008E000E94E50E0F900F90CF91DF91089519
:101A0000DF93CF9300D000D00F92CDB7DEB79C8389
:101A10008B831A82198206C08A818F5F8A838981AB
:101A20008F5F89838A81282F30E08B819C81FC0124
:101A3000E20FF31F8081882319F08981813160F3DF
:101A400089818131B8F41A820EC08A81282F30E052
:101A50008B819C81FC01E20FF31F80810E941A0B95
:101A60008A818F5F8A839A818981981770F381E0D8
:101A70008D8301C01D828D810F900F900F900F906C
:101A80000F90CF91DF910895DF93CF93CDB7DEB75D
:101A90002F970FB6F894DEBF0FBECDBF8F878F850F
:101AA0000E94690880E090E0A0E2B1E48B879C8707
:101AB000AD87BE876B857C858D859E8520E030E077
:101AC0004AE753E40E941F02DC01CB018F83988711
:101AD000A987BA876F81788589859A8520E030E06B
:101AE00040E85FE30E94790388232CF481E090E0D2
:101AF0009E838D833FC06F81788589859A8520E09C
:101B00003FEF4FE757E40E94190318164CF56B8519
:101B10007C858D859E8520E030E040E251E40E9486
:101B20001F02DC01CB01BC01CD010E944900DC0198
:101B3000CB019E838D830FC089E190E09C838B83D2
:101B40008B819C810197F1F79C838B838D819E8192
:101B500001979E838D838D819E81009769F714C0C4
:101B60006F81788589859A850E944900DC01CB01C7
:101B70009E838D838D819E819A83898389819A81B9
:101B80000197F1F79A8389832F960FB6F894DEBFF9
:101B90000FBECDBFCF91DF910895DF93CF93CDB727
:101BA000DEB72E970FB6F894DEBF0FBECDBF8CE127
:101BB0000E94690880E090E0A0E2B1E48B879C87F6
:101BC000AD87BE876B857C858D859E8520E030E066
:101BD0004AE753E40E941F02DC01CB018F83988700
:101BE000A987BA876F81788589859A8520E030E05A
:101BF00040E85FE30E94790388232CF481E090E0C1
:101C00009E838D833FC06F81788589859A8520E08A
:101C10003FEF4FE757E40E94190318164CF56B8508
:101C20007C858D859E8520E030E040E251E40E9475
:101C30001F02DC01CB01BC01CD010E944900DC0187
:101C4000CB019E838D830FC089E190E09C838B83C1
:101C50008B819C810197F1F79C838B838D819E8181
:101C600001979E838D838D819E81009769F714C0B3
:101C70006F81788589859A850E944900DC01CB01B6
:101C80009E838D838D819E819A83898389819A81A8
:101C90000197F1F79A8389832E960FB6F894DEBFE9
:101CA0000FBECDBFCF91DF910895DF93CF93CDB716
:101CB000DEB72F970FB6F894DEBF0FBECDBF8F876C
:101CC0008F85882321F086E00E94690803C087E0A1
:101CD0000E94690880E090E0A0E2B1E48B879C87D5
:101CE000AD87BE876B857C858D859E8520E030E045
:101CF0004AE753E40E941F02DC01CB018F839887DF
:101D0000A987BA876F81788589859A8520E030E038
:101D100040E85FE30E94790388232CF481E090E09F
:101D20009E838D833FC06F81788589859A8520E069
:101D30003FEF4FE757E40E94190318164CF56B85E7
:101D40007C858D859E8520E030E040E251E40E9454
:101D50001F02DC01CB01BC01CD010E944900DC0166
:101D6000CB019E838D830FC089E190E09C838B83A0
:101D70008B819C810197F1F79C838B838D819E8160
:101D800001979E838D838D819E81009769F714C092
:101D90006F81788589859A850E944900DC01CB0195
:101DA0009E838D838D819E819A83898389819A8187
:101DB0000197F1F79A8389832F960FB6F894DEBFC7
:101DC0000FBECDBFCF91DF910895DF93CF93CDB7F5
:101DD000DEB72F970FB6F894DEBF0FBECDBF8F874B
:101DE0008F850E94690880E090E0A0E2B1E48B87D3
:101DF0009C87AD87BE876B857C858D859E8520E021
:101E000030E04AE753E40E941F02DC01CB018F83DC
:101E10009887A987BA876F81788589859A8520E018
:101E200030E040E85FE30E94790388232CF481E0EE
:101E300090E09E838D833FC06F81788589859A85E8
:101E400020E03FEF4FE757E40E94190318164CF5C6
:101E50006B857C858D859E8520E030E040E251E4F5
:101E60000E941F02DC01CB01BC01CD010E94490090
:101E7000DC01CB019E838D830FC089E190E09C83C0
:101E80008B838B819C810197F1F79C838B838D8160
:101E90009E8101979E838D838D819E81009769F736
:101EA00014C06F81788589859A850E944900DC017C
:101EB000CB019E838D838D819E819A8389838981C5
:101EC0009A810197F1F79A8389832F960FB6F89438
:101ED000DEBF0FBECDBFCF91DF910895DF93CF93CB
:101EE00000D000D00F92CDB7DEB78B8380918C00ED
:101EF000882F90E00896880F991F880F991F880FE8
:101F0000991F0E94440D8B81282F30E03D832C8344
:101F10008C819D818E30910509F4FCC12C813D811D
:101F20002F3031050CF055C08C819D818730910593
:101F300009F441C12C813D81283031052CF58C817B
:101F40009D818330910509F4D2C02C813D812430DC
:101F500031056CF48C819D818130910509F494C028
:101F60002C813D812230310509F4A8C049C38C8100
:101F70009D818530910509F4ECC02C813D8126308E
:101F800031050CF0FFC0CCC08C819D818A30910559
:101F900009F45CC12C813D812B3031056CF48C81BE
:101FA0009D818830910509F41FC12C813D81293024
:101FB000310509F432C124C38C819D818C30910597
:101FC00009F476C12C813D812D3031050CF089C199
:101FD00056C18C819D818531910509F44AC22C81BD
:101FE0003D81263131052CF58C819D818131910512
:101FF00009F4DBC12C813D81223131056CF48C81E7
:102000009D818F30910509F49EC12C813D81203145
:10201000310509F4B1C1F4C28C819D8183319105F0
:1020200009F4F5C12C813D81243131050CF008C241
:10203000D5C18C819D818931910509F47EC22C81A5
:102040003D812A3131056CF48C819D818731910568
:1020500009F441C22C813D81283131050CF054C274
:1020600021C28C819D818B31910509F498C22C810C
:102070003D812B3131050CF479C28C819D818C31ED
:10208000910509F4A5C2BCC21A82198208C084E075
:102090000E941A0B89819A8101969A83898389818A
:1020A0009A81853091059CF387E00E941A0B80E0AD
:1020B0000E941A0B80E00E941A0BA2C280E00E94CC
:1020C0001A0B80E00E941A0B80E00E941A0B81E03C
:1020D0000E941A0B81E00E941A0B8FEF0E941A0BCC
:1020E00080E00E941A0B81E00E941A0B89C280E0F6
:1020F0000E941A0B80E00E941A0B80E00E941A0BCB
:1021000085EF0E941A0B81E00E941A0B8FEF0E944C
:102110001A0B80E00E941A0B80E00E941A0B70C21A
:1021200080E00E941A0B80E00E941A0B88E00E9457
:102130001A0B85EF0E941A0B81E00E941A0B8FEF99
:102140000E941A0B80E00E941A0B80E00E941A0B7A
:1021500057C280E00E941A0B80E00E941A0B8CE0AC
:102160000E941A0B82EF0E941A0B81E00E941A0B48
:102170008FEF0E941A0B80E00E941A0B81E00E94F0
:102180001A0B3EC280E00E941A0B80E00E941A0BDC
:102190008CE00E941A0B82EF0E941A0B81E00E94D1
:1021A0001A0B8FEF0E941A0B80E00E941A0B80E03E
:1021B0000E941A0B25C284E00E941A0B80E00E9444
:1021C0001A0B8CE00E941A0B82EF0E941A0B81E01E
:1021D0000E941A0B8FEF0E941A0B80E00E941A0BCC
:1021E00080E00E941A0B0CC280E00E941A0B80E073
:1021F0000E941A0B80E00E941A0B81E00E941A0BC9
:1022000081E00E941A0B8FE00E941A0B80E00E946E
:102210001A0B80E00E941A0BF3C180E00E941A0B97
:1022200081E00E941A0B80E00E941A0B81E00E945C
:102230001A0B81E00E941A0B8FE00E941A0B80E0BB
:102240000E941A0B80E00E941A0BDAC180E00E9403
:102250001A0B80E00E941A0B80E00E941A0B80E0AB
:102260000E941A0B80E00E941A0B83E00E941A0B56
:1022700082E00E941A0B84E00E941A0BC1C180E028
:102280000E941A0B80E00E941A0B80E00E941A0B39
:1022900082E00E941A0B80E00E941A0B83E00E94E9
:1022A0001A0B82E00E941A0B84E00E941A0BA8C14C
:1022B00080E00E941A0B80E00E941A0B80E00E94CE
:1022C0001A0B85E10E941A0B85E10E941A0B8FE11F
:1022D0000E941A0B80E00E941A0B80E00E941A0BE9
:1022E0008FC184E00E941A0B8AE00E941A0B80E0E2
:1022F0000E941A0B85E10E941A0B85E10E941A0BBD
:102300008FE10E941A0B80E00E941A0B80E00E946D
:102310001A0B76C180E00E941A0B80E00E941A0B13
:1023200080E00E941A0B86E00E941A0B89E00E944E
:102330001A0B8FE10E941A0B80E00E941A0B80E0BA
:102340000E941A0B5DC180E00E941A0B84E00E947B
:102350001A0B80E00E941A0B86E00E941A0B89E09B
:102360000E941A0B8FE10E941A0B80E00E941A0B48
:1023700080E00E941A0B44C180E00E941A0B88E0A2
:102380000E941A0B88E00E941A0B8EE00E941A0B22
:1023900089E00E941A0B8FE10E941A0B80E00E94D4
:1023A0001A0B80E00E941A0B2BC180E00E941A0BCE
:1023B0008AE00E941A0B88E00E941A0B8EE00E94AD
:1023C0001A0B89E00E941A0B8FE10E941A0B80E021
:1023D0000E941A0B80E00E941A0B12C180E00E943A
:1023E0001A0B80E00E941A0B87E00E941A0B88E00B
:1023F0000E941A0B88E00E941A0B8FE10E941A0BB0
:1024000080E00E941A0B80E00E941A0BF9C084E061
:102410000E941A0B80E00E941A0B87E00E941A0BA0
:1024200088E00E941A0B88E00E941A0B8FE10E943C
:102430001A0B80E00E941A0B80E00E941A0BE0C089
:1024400082E00E941A0B80E00E941A0B83E00E9437
:102450001A0B83E00E941A0B81E00E941A0B8FE195
:102460000E941A0B80E00E941A0B80E00E941A0B57
:10247000C7C083E00E941A0B80E00E941A0B83E021
:102480000E941A0B83E00E941A0B81E00E941A0B33
:102490008FE10E941A0B80E00E941A0B80E00E94DC
:1024A0001A0BAEC080E00E941A0B8FE00E941A0B3C
:1024B00084E00E941A0B82E00E941A0B81E00E94C5
:1024C0001A0B8FE10E941A0B80E00E941A0B80E029
:1024D0000E941A0B95C080E00E941A0B81E00E94B6
:1024E0001A0B81E00E941A0B81E00E941A0B81E016
:1024F0000E941A0B8FE10E941A0B80E00E941A0BB7
:1025000080E00E941A0B7CC080E00E941A0B80E0E1
:102510000E941A0B80E00E941A0B80E00E941A0BA6
:1025200083E00E941A0B8FE10E941A0B83E00E9445
:102530001A0B80E00E941A0B63C080E00E941A0B05
:1025400080E00E941A0B80E00E941A0B85E00E9436
:102550001A0B81E00E941A0B8FE10E941A0B80E097
:102560000E941A0B80E00E941A0B4AC080E00E9471
:102570001A0B80E00E941A0B80E00E941A0B80E088
:102580000E941A0B86E00E941A0B8FE10E941A0B20
:1025900086E00E941A0B80E00E941A0B31C080E096
:1025A0000E941A0B80E00E941A0B80E00E941A0B16
:1025B00080E00E941A0B83E00E941A0B83E00E94C5
:1025C0001A0B81E00E941A0B82E00E941A0B18C0BD
:1025D00080E00E941A0B80E00E941A0B80E00E94AB
:1025E0001A0B81E00E941A0B81E00E941A0B8FE106
:1025F0000E941A0B80E00E941A0B8AE00E941A0BBC
:1026000080918E00885080938E0090918C008091F4
:102610008E00890F80580E94E50E0F900F900F904A
:102620000F900F90CF91DF910895DF93CF930F928A
:10263000CDB7DEB7898389810E944013882399F43E
:1026400089810E946E0F80918C000E941A0B8091EC
:102650008C008F5F80938C0080918C00883038F0E4
:1026600010928C0004C080918D000E941A0B809102
:102670008E00815080938E000F90CF91DF9108954E
:10268000DF93CF9300D000D0CDB7DEB78B831A8213
:10269000198214C089819A81FC01E558FF4F90810D
:1026A0008B81981731F4898180938D0081E08C8330
:1026B00014C089819A8101969A83898389819A813C
:1026C000883091053CF380918C00882F90E0FC01CC
:1026D000E558FF4F8B8180831C828C810F900F9077
:1026E0000F900F90CF91DF910895DF93CF9300D09B
:1026F00000D000D0CDB7DEB79D838C8380918E0053
:10270000883610F010928E001B821A82198208C03F
:102710008A819B8101969B838A8389818F5F8983CC
:102720002A813B818C819D81FC01E20FF31F808116
:10273000882319F08981813158F38981813190F59D
:102740008981882F90E001979B838A8324C02A8106
:102750003B818C819D81FC01E20FF31F80818D31D3
:1027600058F42A813B818C819D81FC01E20FF31F8B
:1027700080810E9415130AC02A813B818C819D8132
:10278000FC01E20FF31F80810E941A0B8A819B815A
:1027900001979B838A838A819B819923C4F681E078
:1027A0008E8301C01E828E8126960FB6F894DEBFFE
:1027B0000FBECDBFCF91DF910895DF93CF93CDB7FB
:1027C000DEB783E060E041E00E947B0783E061E0E8
:1027D00041E00E947B0782E064E041E00E947B07C9
:1027E00082E065E041E00E947B0782E066E041E034
:1027F0000E947B0782E067E041E00E947B070E9425
:10280000A309CF91DF9108950F931F93DF93CF9387
:10281000CDB7DEB7CB57D0400FB6F894DEBF0FBEB2
:10282000CDBFFE01EC58FF4F8083FE01E659FF4FFC
:1028300080E690E091838083FE01E859FF4F8BE6AC
:1028400090E091838083FE01EA59FF4F8FE690E08C
:1028500091838083FE01EC59FF4F1082FE01ED59F8
:10286000FF4F1082CE0184599F4FE9969FAF8EAFE4
:10287000E99723E830E0EB963FAF2EAFEB9738E0D7
:10288000EC963FAFEC97EB96EEADFFADEB9700808B
:10289000EB962EAD3FADEB972F5F3F4FEB963FAFE3
:1028A0002EAFEB97E996EEADFFADE9970082E99682
:1028B0002EAD3FADE9972F5F3F4FE9963FAF2EAF6B
:1028C000E997EC963FADEC973150EC963FAFEC9723
:1028D000EC966FADEC976623B1F6FE01EC58FF4F16
:1028E0008081E82FF0E0E796FFAFEEAFE797E7963D
:1028F0002EAD3FADE7972730310509F4E2C3E796E7
:102900006EAD7FADE79768307105DCF4E7968EAD6C
:102910009FADE7978530910509F49DC6E796EEAD2A
:10292000FFADE797E630F1050CF0A7C4E7962EADB2
:102930003FADE7972430310511F40C94051D0C943C
:10294000D71DE7966EAD7FADE7976930710519F138
:10295000E7968EAD9FADE797893091050CF48DC257
:10296000E796EEADFFADE797EA30F10511F00C9474
:10297000D71DFE01E659FF4F808191810E94000D15
:1029800085E061E00E94E50CCE0184599F4F0E94D2
:1029900075130C94D71DFE01EC59FF4F80818A30CE
:1029A0000CF071C1FE01EB59FF4F108253C1FE01C3
:1029B000ED59FF4F10820CC080E20E941A0BDE011D
:1029C000AD59BF4FFE01ED59FF4F80818F5F8C9352
:1029D000FE01ED59FF4FDE01AB59BF4F90818C9145
:1029E000981754F3FE01EC59FF4F8081282F3327AD
:1029F00027FD309589E090E0821B930B9C01FE013E
:102A0000E659FF4F80819181FC01E20FF31F808125
:102A10000E941A0BFE01ED59FF4F10820CC080E29C
:102A20000E941A0BDE01AD59BF4FFE01ED59FF4F59
:102A300080818F5F8C93FE01ED59FF4F8081482F7D
:102A4000552747FD5095FE01EC59FF4F8081282FF7
:102A5000332727FD309589E090E0BC01621B730BA2
:102A60009B01FE01EB59FF4F8081992787FD9095CF
:102A7000F901E81BF90BCF014817590784F2FE0151
:102A8000EC59FF4F90818AE0891BFE01ED59FF4F01
:102A900080831CC0FE01ED59FF4F8081282F332712
:102AA00027FD3095FE01E659FF4F80819181FC01A1
:102AB000E20FF31F80810E941A0BDE01AD59BF4F58
:102AC000FE01ED59FF4F80818F5F8C93FE01ED5920
:102AD000FF4F80818A30F4F2FE01E15AFF4F80E01F
:102AE00090E0AAE7B4E480839183A283B3838E014C
:102AF000055A1F4FFE01E15AFF4F608171818281AB
:102B0000938120E030E04AE753E40E941F02DC0199
:102B1000CB01F80180839183A283B383FE01E55A40
:102B2000FF4F608171818281938120E030E040E835
:102B30005FE30E947903882344F4FE01E75AFF4FC4
:102B400081E090E09183808364C0FE01E55AFF4FED
:102B5000608171818281938120E03FEF4FE757E4EC
:102B60000E94190318160CF043C0FE01E15AFF4FF2
:102B7000608171818281938120E030E040E251E404
:102B80000E941F02DC01CB018E01075A1F4FBC01BE
:102B9000CD010E944900DC01CB01F80191838083C3
:102BA0001FC0FE01E95AFF4F89E190E091838083C5
:102BB000FE01E95AFF4F808191810197F1F7FE01F3
:102BC000E95AFF4F91838083DE01A75ABF4FFE0170
:102BD000E75AFF4F80819181019711969C938E93C4
:102BE000FE01E75AFF4F808191810097D1F627C0FF
:102BF0008E01075A1F4FFE01E55AFF4F6081718118
:102C0000828193810E944900DC01CB01F80191830C
:102C10008083DE01AB5ABF4FFE01E75AFF4F808130
:102C200091818D939C93FE01EB5AFF4F808191819E
:102C30000197F1F7FE01EB5AFF4F918380830E94C9
:102C40005B0CDE01AB59BF4FFE01EB59FF4F80819A
:102C50008F5F8C93FE01EB59FF4F8081482F5527E2
:102C600047FD5095FE01EC59FF4F8081282F3327F7
:102C700027FD309589E090E0821B930B8417950720
:102C80000CF095CE31C0FE01EC59FF4F8081882FAA
:102C900090E081709070882339F1FE01EB59FF4F6D
:102CA00010821CC0FE01EB59FF4F8081282F332773
:102CB00027FD3095FE01E659FF4F80819181FC018F
:102CC000E20FF31F80810E941A0BDE01AB59BF4F48
:102CD000FE01EB59FF4F80818F5F8C93FE01EB5912
:102CE000FF4F80818A30F4F2DE01AC59BF4FFE0104
:102CF000EC59FF4F80818F5F8C93FE01EC59FF4FA1
:102D00008081803124F0FE01EC59FF4F1082FE01DA
:102D1000EF5AFF4F80E090E0AAE7B4E4808391830C
:102D2000A283B3838E01035B1F4FFE01EF5AFF4F57
:102D3000608171818281938120E030E04AE753E431
:102D40000E941F02DC01CB01F80180839183A283E2
:102D5000B383FE01E35BFF4F6081718182819381C8
:102D600020E030E040E85FE30E947903882344F4E8
:102D7000FE01E55BFF4F81E090E09183808364C0BA
:102D8000FE01E35BFF4F608171818281938120E0CE
:102D90003FEF4FE757E40E94190318160CF043C0A9
:102DA000FE01EF5AFF4F608171818281938120E0A3
:102DB00030E040E251E40E941F02DC01CB018E01B1
:102DC000055B1F4FBC01CD010E944900DC01CB0116
:102DD000F801918380831FC0FE01E75BFF4F89E10B
:102DE00090E091838083FE01E75BFF4F80819181BA
:102DF0000197F1F7FE01E75BFF4F91838083DE01CE
:102E0000A55BBF4FFE01E55BFF4F8081918101977C
:102E100011969C938E93FE01E55BFF4F808191811B
:102E20000097D1F627C08E01055B1F4FFE01E35BC3
:102E3000FF4F60817181828193810E944900DC0192
:102E4000CB01F80191838083DE01A95BBF4FFE01B6
:102E5000E55BFF4F808191818D939C93FE01E95B3F
:102E6000FF4F808191810197F1F7FE01E95BFF4FF0
:102E7000918380830E945B0C8ECDFE01EB59FF4F46
:102E800010820CC080E20E941A0BDE01AB59BF4FCA
:102E9000FE01EB59FF4F80818F5F8C93FE01EB5950
:102EA000FF4FDE01AC59BF4F90818C91981754F3BE
:102EB000FE01EB59FF4F10821CC0FE01EB59FF4F82
:102EC0008081282F332727FD3095FE01E859FF4FD9
:102ED00080819181FC01E20FF31F80810E941A0B17
:102EE000DE01AB59BF4FFE01EB59FF4F80818F5F71
:102EF0008C93FE01EB59FF4F80818330F4F280EC1C
:102F00000E946908FE01EC59FF4F90818DE0891BFA
:102F1000FE01EB59FF4F80830CC080E20E941A0B28
:102F2000DE01AB59BF4FFE01EB59FF4F808181504D
:102F30008C93FE01EB59FF4F8081181674F3FE014C
:102F4000EB59FF4F10821CC0FE01EB59FF4F8081EF
:102F5000282F332727FD3095FE01EA59FF4F808146
:102F60009181FC01E20FF31F80810E941A0BDE01A8
:102F7000AB59BF4FFE01EB59FF4F80818F5F8C93A0
:102F8000FE01EB59FF4F80818330F4F2DE01AC5932
:102F9000BF4FFE01EC59FF4F80818F5F8C93FE0184
:102FA000EC59FF4F80818E3024F0FE01EC59FF4F29
:102FB0001082FE01ED5BFF4F80E090E0AAE7B4E4F1
:102FC00080839183A283B3838E01015C1F4FFE0136
:102FD000ED5BFF4F608171818281938120E030E061
:102FE0004AE753E40E941F02DC01CB01F801808311
:102FF0009183A283B383FE01FF96608171818281F8
:10300000938120E030E040E85FE30E947903882369
:103010002CF481E090E09EAF8DAF46C0FE01FF969C
:10302000608171818281938120E03FEF4FE757E417
:103030000E941903181664F5FE01ED5BFF4F6081D5
:1030400071818281938120E030E040E251E40E946E
:103050001F02DC01CB01BC01CD010E944900DC0153
:10306000CB019EAF8DAF0FC089E190E09CAF8BAFDD
:103070008BAD9CAD0197F1F79CAF8BAF8DAD9EAD45
:1030800001979EAF8DAF8DAD9EAD009769F716C0CD
:10309000FE01FF9660817181828193810E944900C7
:1030A000DC01CB019EAF8DAF8DAD9EAD9AAF89AFE8
:1030B00089AD9AAD0197F1F79AAF89AF0E945B0C89
:1030C000DCCEFE01EC59FF4F8081882F90E08170AB
:1030D0009070882319F080EC0E946908FE01EC5979
:1030E000FF4F8081992787FD9095880F991FFE01DA
:1030F000EB59FF4F80830CC080E20E941A0BDE0167
:10310000AB59BF4FFE01EB59FF4F808181508C932B
:10311000FE01EB59FF4F8081181674F3FE01EB5945
:10312000FF4F10821CC0FE01EB59FF4F8081282FFA
:10313000332727FD3095FE01E659FF4F80819181AD
:10314000FC01E20FF31F80810E941A0BDE01AB59D4
:10315000BF4FFE01EB59FF4F80818F5F8C93FE01C3
:10316000EB59FF4F80818430F4F2DE01AC59BF4F40
:10317000FE01EC59FF4F80818F5F8C93FE01EC596B
:10318000FF4F8081863024F0FE01EC59FF4F108202
:1031900080E090E0AAE7B4E48DAB9EABAFABB8AFF4
:1031A0006DA97EA98FA998AD20E030E04AE753E4ED
:1031B0000E941F02DC01CB0189AB9AABABABBCAB6D
:1031C00069A97AA98BA99CA920E030E040E85FE3D7
:1031D0000E94790388232CF481E090E098AB8FA7BC
:1031E0003FC069A97AA98BA99CA920E03FEF4FE7CE
:1031F00057E40E94190318164CF56DA97EA98FA9F2
:1032000098AD20E030E040E251E40E941F02DC0172
:10321000CB01BC01CD010E944900DC01CB0198AB80
:103220008FA70FC089E190E09EA78DA78DA59EA5D1
:103230000197F1F79EA78DA78FA598A9019798AB45
:103240008FA78FA598A9009769F714C069A97AA9D3
:103250008BA99CA90E944900DC01CB0198AB8FA7E8
:103260008FA598A99CA78BA78BA59CA50197F1F783
:103270009CA78BA70E945B0C24CFFE01EC59FF4F4B
:10328000808180310CF0A2C0FE01EB59FF4F10820B
:103290000CC080E20E941A0BDE01AB59BF4FFE0149
:1032A000EB59FF4F80818F5F8C93FE01EB59FF4FED
:1032B000DE01AC59BF4F90818C91981754F3FE01F9
:1032C000EB59FF4F10821CC0FE01EB59FF4F80816C
:1032D000282F332727FD3095FE01E659FF4F8081C7
:1032E0009181FC01E20FF31F80810E941A0BDE0125
:1032F000AB59BF4FFE01EB59FF4F80818F5F8C931D
:10330000FE01EB59FF4F80818A30F4F2FE01EC5947
:10331000FF4F808187300CF416C180EC0E94690851
:10332000FE01EB59FF4F10820CC080E20E941A0B85
:10333000DE01AB59BF4FFE01EB59FF4F80818F5F1C
:103340008C93FE01EB59FF4F8081482F552747FD95
:103350005095FE01EC59FF4F8081282F332727FD20
:10336000309586E190E0821B930B48175907ECF2E9
:10337000FE01EC59FF4F908180E1891BFE01EB5962
:10338000FF4F80831CC0FE01EB59FF4F8081282F27
:10339000332727FD3095FE01E659FF4F808191814B
:1033A000FC01E20FF31F80810E941A0BDE01AB5972
:1033B000BF4FFE01EB59FF4F80818F5F8C93FE0161
:1033C000EB59FF4F80818A30F4F2BDC0FE01EC5909
:1033D000FF4F808186310CF053C080EC0E94690859
:1033E000FE01EB59FF4F10820CC080E20E941A0BC5
:1033F000DE01AB59BF4FFE01EB59FF4F80818F5F5C
:103400008C93FE01EB59FF4F8081482F552747FDD4
:103410005095FE01EC59FF4F8081282F332727FD5F
:10342000309586E190E0821B930B48175907ECF228
:10343000FE01EB59FF4F10821CC0FE01EB59FF4FFC
:103440008081282F332727FD3095FE01E659FF4F55
:1034500080819181FC01E20FF31F80810E941A0B91
:10346000DE01AB59BF4FFE01EB59FF4F80818F5FEB
:103470008C93FE01EB59FF4F80818A30F4F263C0D8
:10348000FE01EB59FF4F10821CC0FE01EB59FF4FAC
:103490008081282F332727FD3095FE01E659FF4F05
:1034A00080819181FC01E20FF31F80810E941A0B41
:1034B000DE01AB59BF4FFE01EB59FF4F80818F5F9B
:1034C0008C93FE01EB59FF4F8081282F332727FD76
:1034D0003095FE01EC59FF4F8081992787FD90952B
:1034E0004697821793078CF680EC0E946908FE01CC
:1034F000EC59FF4F80818651FE01EB59FF4F8083CD
:103500001CC0FE01EB59FF4F8081282F332727FD78
:103510003095FE01E659FF4F80819181FC01E20F59
:10352000F31F80810E941A0BDE01AB59BF4FFE01D1
:10353000EB59FF4F80818F5F8C93FE01EB59FF4F5A
:1035400080818A30F4F2DE01AC59BF4FFE01EC59A4
:10355000FF4F80818F5F8C93FE01EC59FF4F80817C
:103560008F3124F0FE01EC59FF4F108280E090E093
:10357000AAE7B4E48FA398A7A9A7BAA76FA178A5D3
:1035800089A59AA520E030E04AE753E40E941F0293
:10359000DC01CB018BA39CA3ADA3BEA36BA17CA13B
:1035A0008DA19EA120E030E040E85FE30E94790316
:1035B00088232CF481E090E09AA389A33FC06BA1FB
:1035C0007CA18DA19EA120E03FEF4FE757E40E9430
:1035D000190318164CF56FA178A589A59AA520E0C6
:1035E00030E040E251E40E941F02DC01CB01BC014B
:1035F000CD010E944900DC01CB019AA389A30FC031
:1036000089E190E098A38F8F8F8D98A10197F1F7B2
:1036100098A38F8F89A19AA101979AA389A389A1C1
:103620009AA1009769F714C06BA17CA18DA19EA1FE
:103630000E944900DC01CB019AA389A389A19AA128
:103640009E8F8D8F8D8D9E8D0197F1F79E8F8D8F23
:103650000E945B0C12CEFE01EC59FF4F808180313D
:103660000CF07AC0FE01EB59FF4F10820CC080E2D3
:103670000E941A0BDE01AB59BF4FFE01EB59FF4F01
:1036800080818F5F8C93FE01EB59FF4FDE01AC59B7
:10369000BF4F90818C91981754F3FE01EB59FF4F67
:1036A00010821CC0FE01EB59FF4F8081282F332769
:1036B00027FD3095FE01E659FF4F80819181FC0185
:1036C000E20FF31F80810E941A0BDE01AB59BF4F3E
:1036D000FE01EB59FF4F80818F5F8C93FE01EB5908
:1036E000FF4F80818A30F4F2FE01EC59FF4F808158
:1036F00087300CF402C180EC0E946908FE01EC598D
:10370000FF4F908180E1891BFE01EB59FF4F8083C1
:103710001CC0FE01EB59FF4F8081282F332727FD66
:103720003095FE01E659FF4F80819181FC01E20F47
:10373000F31F80810E941A0BDE01AB59BF4FFE01BF
:10374000EB59FF4F80818F5F8C93FE01EB59FF4F48
:1037500080818A30F4F2D1C0FE01EC59FF4F8081A4
:1037600086310CF04FC080EC0E946908FE01EB59D5
:10377000FF4F10820CC080E20E941A0BDE01AB5991
:10378000BF4FFE01EB59FF4F80818F5F8C93FE018D
:10379000EB59FF4F8081282F332727FD3095FE01FD
:1037A000EC59FF4F8081992787FD90954097281706
:1037B00039070CF3FE01EB59FF4F10821CC0FE01CC
:1037C000EB59FF4F8081282F332727FD3095FE01CD
:1037D000E659FF4F80819181FC01E20FF31F808148
:1037E0000E941A0BDE01AB59BF4FFE01EB59FF4F90
:1037F00080818F5F8C93FE01EB59FF4F80818A306F
:10380000F4F27BC0FE01EC59FF4F90818FE1891BE0
:10381000FE01EB59FF4F80831CC0FE01EB59FF4FA7
:103820008081282F332727FD3095FE01E659FF4F71
:1038300080819181FC01E20FF31F80810E941A0BAD
:10384000DE01AB59BF4FFE01EB59FF4F80818F5F07
:103850008C93FE01EB59FF4F80818A30F4F280ECAB
:103860000E946908FE01EB59FF4F10820CC080E2F4
:103870000E941A0BDE01AB59BF4FFE01EB59FF4FFF
:1038800080818F5F8C93FE01EB59FF4F8081282F41
:10389000332727FD3095FE01EC59FF4F8081992792
:1038A00087FD90954097281739070CF3FE01EB59D7
:1038B000FF4F10821CC0FE01EB59FF4F8081282F63
:1038C000332727FD3095FE01E659FF4F8081918116
:1038D000FC01E20FF31F80810E941A0BDE01AB593D
:1038E000BF4FFE01EB59FF4F80818F5F8C93FE012C
:1038F000EB59FF4F80818A30F4F2DE01AC59BF4FA3
:10390000FE01EC59FF4F80818F5F8C93FE01EC59D3
:10391000FF4F80818F3124F0FE01EC59FF4F108260
:1039200080E090E0AAE7B4E4898F9A8FAB8FBC8FD8
:10393000698D7A8D8B8D9C8D20E030E04AE753E4D1
:103940000E941F02DC01CB018D8B9E8BAF8BB88F49
:103950006D897E898F89988D20E030E040E85FE3B3
:103960000E94790388232CF481E090E09C8B8B8B60
:103970003FC06D897E898F89988D20E03FEF4FE7AA
:1039800057E40E94190318164CF5698D7A8D8B8DBA
:103990009C8D20E030E040E251E40E941F02DC01F7
:1039A000CB01BC01CD010E944900DC01CB019C8B05
:1039B0008B8B0FC089E190E09A8B898B89899A89DA
:1039C0000197F1F79A8B898B8B899C8901979C8B46
:1039D0008B8B8B899C89009769F714C06D897E89D0
:1039E0008F89988D0E944900DC01CB019C8B8B8BC9
:1039F0008B899C89988B8F878F8598890197F1F7A0
:103A0000988B8F870E945B0C26CEFE01EC59FF4FEE
:103A1000808180310CF042C0FE01EB59FF4F1082D3
:103A20000CC080E20E941A0BDE01AB59BF4FFE01B1
:103A3000EB59FF4F80818F5F8C93FE01EB59FF4F55
:103A4000DE01AC59BF4F90818C91981754F3FE0161
:103A5000EB59FF4F10821CC0FE01EB59FF4F8081D4
:103A6000282F332727FD3095FE01E659FF4F80812F
:103A70009181FC01E20FF31F80810E941A0BDE018D
:103A8000AB59BF4FFE01EB59FF4F80818F5F8C9385
:103A9000FE01EB59FF4F80818A30F4F280E090E024
:103AA000AAE7B4E48B879C87AD87BE876B857C854E
:103AB0008D859E8520E030E04AE753E40E941F0296
:103AC000DC01CB018F839887A987BA876F817885BE
:103AD00089859A8520E030E040E85FE30E94790321
:103AE00088232CF481E090E09E838D833FC06F811A
:103AF000788589859A8520E03FEF4FE757E40E945B
:103B0000190318164CF56B857C858D859E8520E004
:103B100030E040E251E40E941F02DC01CB01BC0115
:103B2000CD010E944900DC01CB019E838D830FC033
:103B300089E190E09C838B838B819C810197F1F7D5
:103B40009C838B838D819E8101979E838D838D8144
:103B50009E81009769F714C06F81788589859A8561
:103B60000E944900DC01CB019E838D838D819E8163
:103B70009A83898389819A810197F1F79A8389834E
:103B80000E945B0CDE01AC59BF4FFE01EC59FF4FA8
:103B900080818F5F8C93FE01EC59FF4F80818131D2
:103BA0000CF433CFFE01EC59FF4F10822ECFC558D5
:103BB000DF4F0FB6F894DEBF0FBECDBFCF91DF91C0
:103BC0001F910F910895DF93CF93CDB7DEB70E9479
:103BD000DD138AE00E94041480E090E0CF91DF9131
:103BE00008952F923F924F925F926F927F928F92A1
:103BF0009F92AF92BF92CF92DF92EF92FF920F937C
:103C00001F93CF93DF93CDB7DEB7CA1BDB0B0FB685
:103C1000F894DEBF0FBECDBF09942A883988488842
:103C20005F846E847D848C849B84AA84B984C884D8
:103C3000DF80EE80FD800C811B81AA81B981CE0FCF
:103C4000D11D0FB6F894DEBF0FBECDBFED010895B4
:043C5000F894FFCF16
:103C54004D61686120457A7A6174004D6168004560
:103C64007A7A0000000000000000001C1C1C1C1CD0
:0C3C74001C1C1C181A0120120B0300007D
:00000001FF
