:100000000C942A000C9447000C9447000C94470071
:100010000C9447000C9447000C9447000C94470044
:100020000C9447000C9447000C9447000C94470034
:100030000C9447000C9447000C9447000C94470024
:100040000C9447000C9447000C9447000C94470014
:100050000C94470011241FBECFE5D4E0DEBFCDBF16
:1000600010E0A0E6B0E0EAE7F1E302C005900D92EF
:10007000A037B107D9F710E0A0E7B0E001C01D92AA
:10008000A337B107E1F70E94F7170C94BB180C9443
:100090000000EF92FF920F931F937B018C0120E0F1
:1000A00030E040E05FE40E94490388238CF0C801FF
:1000B000B70120E030E040E05FE40E94C1010E940F
:1000C000A9039B01AC01205030404040504806C07D
:1000D000C801B7010E94A9039B01AC01B901CA0183
:1000E0001F910F91FF90EF900895A0E0B0E0EBE733
:1000F000F0E00C948418DC012B01FA019C91923001
:1001000008F439C1EB018881823008F433C194309E
:1001100069F4843009F02FC111969C91119789815F
:10012000981709F428C1A0E6B0E025C1843009F48D
:1001300021C18230A9F4923009F01DC19A01AD01AC
:1001400088E0EA010990AE01E90109929E0181501F
:10015000C1F7E201898111969C918923818308C1AD
:10016000923009F407C112962D903C901397EB0141
:100170008A819B811496AD90BD90CD90DC901797AD
:10018000EC80FD800E811F819101281B390BB90184
:1001900037FF04C066277727621B730B6032710537
:1001A0000CF061C0121613066CF537014801062EDB
:1001B00004C096948794779467940A94D2F721E0C8
:1001C00030E040E050E004C0220F331F441F551FB1
:1001D0006A95D2F721503040404050402E213F21B7
:1001E00040235123211531054105510521F021E01E
:1001F00030E040E050E079018A01E628F72808293C
:1002000019293CC0232BD1F1260E371E350146019A
:10021000062E04C096948794779467940A94D2F734
:1002200021E030E040E050E004C0220F331F441FC3
:10023000551F6A95D2F721503040404050402A2146
:100240003B214C215D21211531054105510521F04E
:1002500021E030E040E050E059016A01A628B728CB
:10026000C828D9280BC0821593052CF01C01AA249C
:10027000BB24650103C0EE24FF24870111969C91E5
:10028000D20111968C91981709F445C0992339F041
:10029000A80197012A193B094C095D0906C0A6016E
:1002A00095012E193F09400B510B57FD08C01182D3
:1002B0003382228224833583468357831DC081E0A5
:1002C00081833382228288279927DC01821B930B4A
:1002D000A40BB50B84839583A683B7830DC0220F2F
:1002E000331F441F551F24833583468357838281E0
:1002F000938101979383828324813581468157813D
:10030000DA01C9010197A109B1098F5F9F4FAF4F72
:10031000BF4328F30BC0918333822282EA0CFB1C7B
:100320000C1D1D1DE482F5820683178383E0808304
:10033000248135814681578157FF1AC0C901AA27F8
:1003400097FDA095BA2F81709070A070B0705695EF
:10035000479537952795822B932BA42BB52B848318
:100360009583A683B7838281938101969383828349
:10037000DF0101C0D201CD01CDB7DEB7E2E10C94BF
:10038000A018A0E2B0E0E7ECF1E00C9490186983CB
:100390007A838B839C832D833E834F835887E9E048
:1003A000EE2EF12CEC0EFD1ECE010196B7010E943F
:1003B000D2048E010F5E1F4FCE010596B8010E9438
:1003C000D2048A8991E089278A8BC701B801AE01DE
:1003D000475E5F4F0E9475000E94FD03A096E6E015
:1003E0000C94AC18A0E2B0E0E8EFF1E00C949018A7
:1003F00069837A838B839C832D833E834F835887C5
:10040000F9E0EF2EF12CEC0EFD1ECE010196B701A6
:100410000E94D2048E010F5E1F4FCE010596B801D7
:100420000E94D204C701B801AE01475E5F4F0E942F
:1004300075000E94FD03A096E6E00C94AC18A0E2C3
:10044000B0E0E5E2F2E00C94841869837A838B8350
:100450009C832D833E834F835887CE010196BE0136
:10046000675F7F4F0E94D204CE010596BE016F5E8A
:100470007F4F0E94D2049985923088F0898982301A
:10048000C8F0943019F4823051F404C0843029F457
:10049000923081F480E690E0C6C0923049F420E0CA
:1004A0009A858A89981321E02A87CE010996BBC0D4
:1004B000823049F420E09A858A89981321E02A8BBA
:1004C000CE014196B0C02D843E844F8458886D88FB
:1004D0007E888F88988CEE24FF248701AA24BB2471
:1004E000650140E050E060E070E0E0E0F0E0C10174
:1004F00081709070892BE9F0E60CF71C081D191D1E
:100500009A01AB012A0D3B1D4C1D5D1D80E090E062
:10051000A0E0B0E0E614F7040805190520F481E036
:1005200090E0A0E0B0E0BA01A901480F591F6A1F8E
:100530007B1FAA0CBB1CCC1CDD1C97FE08C081E0F5
:1005400090E0A0E0B0E0A82AB92ACA2ADB2A3196B6
:10055000E032F10549F0660C771C881C991C569412
:10056000479437942794C3CFFA85EA892B893C892D
:100570008B859C85280F391F2E5F3F4F17C0CA01FE
:1005800081709070892B61F016950795F794E79428
:1005900080E090E0A0E0B0E8E82AF92A0A2B1B2BC3
:1005A00076956795579547952F5F3F4F77FDE7CF36
:1005B0000CC0440F551F661F771F17FD4160EE0CDE
:1005C000FF1C001F111F21503040403090E05907A0
:1005D00090E0690790E4790760F32B8F3C8FDB0193
:1005E000CA018F779070A070B07080349105A1051A
:1005F000B10561F447FD0AC0E114F10401051105DC
:1006000029F0405C5F4F6F4F7F4F40781A8EFE1786
:1006100011F081E08A8F4D8F5E8F6F8F78A383E01A
:10062000898FCE0149960E94FD03A096E2E10C94C9
:10063000A018A8E1B0E0EFE1F3E00C949018698312
:100640007A838B839C832D833E834F83588789E0F5
:10065000E82EF12CEC0EFD1ECE010196B7010E9492
:10066000D2048E010F5E1F4FCE010596B8010E9485
:10067000D2048985823040F08989823028F0C70110
:10068000B8010E944A0501C08FEF6896E6E00C941D
:10069000AC18A8E1B0E0EFE4F3E00C9490186983A3
:1006A0007A838B839C832D833E834F83588789E095
:1006B000E82EF12CEC0EFD1ECE010196B7010E9432
:1006C000D2048E010F5E1F4FCE010596B8010E9425
:1006D000D2048985823040F08989823028F0C701B0
:1006E000B8010E944A0501C08FEF6896E6E00C94BD
:1006F000AC18A8E1B0E0EFE7F3E00C949018698340
:100700007A838B839C832D833E834F83588789E034
:10071000E82EF12CEC0EFD1ECE010196B7010E94D1
:10072000D2048E010F5E1F4FCE010596B8010E94C4
:10073000D2048985823040F08989823028F0C7014F
:10074000B8010E944A0501C081E06896E6E00C9479
:10075000AC18ACE0B0E0EFEAF3E00C9494186983D5
:100760007A838B839C83CE010196BE016B5F7F4FA2
:100770000E94D2048D81823061F1823050F1843048
:1007800021F48E81882351F12EC02F81388537FDC9
:1007900020C06E812F3131051CF06623F9F023C093
:1007A0008EE190E0821B930B29853A854B855C8511
:1007B00004C056954795379527958A95D2F76623B5
:1007C000B1F050954095309521953F4F4F4F5F4F79
:1007D0000EC020E030E040E050E009C02FEF3FEFD6
:1007E0004FEF5FE704C020E030E040E050E8B9019F
:1007F000CA012C96E2E00C94B018DF92EF92FF92BF
:100800000F931F93FC01E480F58006811781D1804E
:100810008081823048F480E090E0A0E1B0E0E82AF6
:10082000F92A0A2B1B2BA5C0843009F49FC0823003
:1008300021F4EE24FF24870105C0E114F104010531
:10084000110519F4E0E0F0E096C0628173819FEF3A
:10085000623879070CF05BC022E83FEF261B370BAC
:100860002A3131052CF020E030E040E050E02AC091
:10087000B801A701022E04C0769567955795479554
:100880000A94D2F781E090E0A0E0B0E004C0880FC5
:10089000991FAA1FBB1F2A95D2F70197A109B10979
:1008A0008E219F21A023B1230097A105B10521F03E
:1008B00081E090E0A0E0B0E09A01AB01282B392B59
:1008C0004A2B5B2BDA01C9018F779070A070B07052
:1008D00080349105A105B10539F427FF09C0205CDA
:1008E0003F4F4F4F5F4F04C0215C3F4F4F4F5F4F13
:1008F000E0E0F0E02030A0E03A07A0E04A07A0E402
:100900005A0710F0E1E0F0E079018A0127C0603871
:10091000710564F5FB01E158FF4FD801C7018F77DE
:100920009070A070B07080349105A105B10539F4C4
:10093000E7FE0DC080E490E0A0E0B0E004C08FE3EB
:1009400090E0A0E0B0E0E80EF91E0A1F1B1F17FFA1
:1009500005C016950795F794E794319687E01695AC
:100960000795F794E7948A95D1F705C0EE24FF2404
:100970008701EFEFF0E06E2F679566276795902F60
:100980009F77D794DD24D7948E2F8695492F462BB9
:10099000582F5D29B701CA011F910F91FF90EF9069
:1009A000DF900895FC01DB01408151812281622F9B
:1009B0006F7770E0221F2227221F9381892F880FD3
:1009C000822B282F30E0991F9927991F11969C930D
:1009D000119721153105A9F54115510561057105DD
:1009E00011F482E037C082E89FEF13969C938E93B8
:1009F00012979A01AB0167E0220F331F441F551F66
:100A00006A95D1F783E08C930DC0220F331F441FEA
:100A1000551F12968D919C911397019713969C9355
:100A20008E931297203080E0380780E0480780E4FA
:100A3000580758F314962D933D934D935C93179755
:100A400008952F3F310579F4411551056105710570
:100A500019F484E08C93089564FF03C081E08C93C3
:100A600012C01C9210C02F57304013963C932E9307
:100A7000129783E08C9387E0440F551F661F771F02
:100A80008A95D1F7706414964D935D936D937C9322
:100A9000179708951F93DC01FB019C91923008F495
:100AA00047C08081823008F443C0943051F41196DD
:100AB0001C91843099F58181682F70E0611B710968
:100AC0003FC0843021F0923031F48230B9F181811D
:100AD000882389F12DC011961C9111978230F1F075
:100AE00081811817D9F412962D913C911397828128
:100AF00093818217930794F028173907BCF0149656
:100B00008D919D910D90BC91A02D248135814681C0
:100B10005781281739074A075B0718F4112341F05A
:100B20000AC082179307A407B50740F4112319F0F0
:100B300061E070E005C06FEF7FEF02C060E070E041
:100B4000CB011F910895DF93CF93CDB7DEB783E03C
:100B500067E041E00E94190B83E067E040E00E94FB
:100B60002B0ACF91DF910895DF93CF930F92CDB7EA
:100B7000DEB7898383E067E049810E942B0A0F90EA
:100B8000CF91DF910895DF93CF93CDB7DEB7A2E386
:100B9000B0E0E2E3F0E0908180E889278C93CF9188
:100BA000DF9108950F931F93DF93CF93CDB7DEB7F7
:100BB000C855D0400FB6F894DEBF0FBECDBFFE01C2
:100BC000E95AFF4F8083FE01E85AFF4F6083FE0120
:100BD000EB5AFF4F118210824AC181E00E94B40596
:100BE000FE01EF5AFF4F80E090E0A0E8BFE3808372
:100BF0009183A283B3838E01035B1F4FFE01EF5AE3
:100C0000FF4F608171818281938120E030E04AE76B
:100C100053E40E941F02DC01CB01F8018083918321
:100C2000A283B383FE01E35BFF4F60817181828108
:100C3000938120E030E040E85FE30E94790388235D
:100C400044F4FE01E55BFF4F81E090E091838083F7
:100C500064C0FE01E35BFF4F6081718182819381FB
:100C600020E03FEF4FE757E40E94190318160CF0FD
:100C700043C0FE01EF5AFF4F6081718182819381F1
:100C800020E030E040E251E40E941F02DC01CB0191
:100C90008E01055B1F4FBC01CD010E944900DC01A4
:100CA000CB01F801918380831FC0FE01E75BFF4FFA
:100CB00089E190E091838083FE01E75BFF4F8081B3
:100CC00091810197F1F7FE01E75BFF4F91838083EC
:100CD000DE01A55BBF4FFE01E55BFF4F8081918187
:100CE000019711969C938E93FE01E55BFF4F8081E7
:100CF00091810097D1F627C08E01055B1F4FFE0141
:100D0000E35BFF4F60817181828193810E94490082
:100D1000DC01CB01F80191838083DE01A95BBF4F29
:100D2000FE01E55BFF4F808191818D939C93FE01D5
:100D3000E95BFF4F808191810197F1F7FE01E95B4B
:100D4000FF4F9183808380E00E94B405FE01ED5B3C
:100D5000FF4F80E090E0A0E2B1E480839183A28322
:100D6000B3838E01015C1F4FFE01ED5BFF4F60817D
:100D700071818281938120E030E04AE753E40E9450
:100D80001F02DC01CB01F80180839183A283B3832E
:100D9000FE01FF96608171818281938120E030E0C5
:100DA00040E85FE30E94790388232CF481E090E01F
:100DB0009EAF8DAF46C0FE01FF966081718182813A
:100DC000938120E03FEF4FE757E40E941903181684
:100DD00064F5FE01ED5BFF4F60817181828193813B
:100DE00020E030E040E251E40E941F02DC01CB0130
:100DF000BC01CD010E944900DC01CB019EAF8DAF4B
:100E00000FC089E190E09CAF8BAF8BAD9CAD01979B
:100E1000F1F79CAF8BAF8DAD9EAD01979EAF8DAFBF
:100E20008DAD9EAD009769F716C0FE01FF966081FB
:100E30007181828193810E944900DC01CB019EAFC8
:100E40008DAF8DAD9EAD9AAF89AF89AD9AAD01974B
:100E5000F1F79AAF89AFDE01AB5ABF4FFE01EB5AF3
:100E6000FF4F80819181019611969C938E93FE0194
:100E7000E95AFF4F8081282F30E0FE01EB5AFF4FE7
:100E800080819181821793070CF4A7CE80E090E0D7
:100E9000AAE7B4E48DAB9EABAFABB8AF6DA97EA9AA
:100EA0008FA998AD20E030E04AE753E40E941F028A
:100EB000DC01CB0189AB9AABABABBCAB69A97AA91E
:100EC0008BA99CA920E030E040E85FE30E94790311
:100ED00088232CF481E090E098AB8FA73FC069A9EC
:100EE0007AA98BA99CA920E03FEF4FE757E40E9425
:100EF000190318164CF56DA97EA98FA998AD20E0AD
:100F000030E040E251E40E941F02DC01CB01BC0151
:100F1000CD010E944900DC01CB0198AB8FA70FC027
:100F200089E190E09EA78DA78DA59EA50197F1F779
:100F30009EA78DA78FA598A9019798AB8FA78FA57E
:100F400098A9009769F714C069A97AA98BA99CA9E7
:100F50000E944900DC01CB0198AB8FA78FA598A90F
:100F60009CA78BA78BA59CA50197F1F79CA78BA7A6
:100F7000FE01EB5AFF4F11821082F6C081E00E9401
:100F8000B40580E090E0A0E2B1E48FA398A7A9A700
:100F9000BAA76FA178A589A59AA520E030E04AE715
:100FA00053E40E941F02DC01CB018BA39CA3ADA3E1
:100FB000BEA36BA17CA18DA19EA120E030E040E802
:100FC0005FE30E94790388232CF481E090E09AA3E8
:100FD00089A33FC06BA17CA18DA19EA120E03FEF22
:100FE0004FE757E40E94190318164CF56FA178A536
:100FF00089A59AA520E030E040E251E40E941F025A
:10100000DC01CB01BC01CD010E944900DC01CB0118
:101010009AA389A30FC089E190E098A38F8F8F8D49
:1010200098A10197F1F798A38F8F89A19AA10197B1
:101030009AA389A389A19AA1009769F714C06BA10B
:101040007CA18DA19EA10E944900DC01CB019AA345
:1010500089A389A19AA19E8F8D8F8D8D9E8D0197D9
:10106000F1F79E8F8D8F80E00E94B40580E090E0C4
:10107000A0E8BFE3898F9A8FAB8FBC8F698D7A8D83
:101080008B8D9C8D20E030E04AE753E40E941F02E4
:10109000DC01CB018D8B9E8BAF8BB88F6D897E89E8
:1010A0008F89988D20E030E040E85FE30E9479036B
:1010B00088232CF481E090E09C8B8B8B3FC06D8962
:1010C0007E898F89988D20E03FEF4FE757E40E949B
:1010D000190318164CF5698D7A8D8B8D9C8D20E047
:1010E00030E040E251E40E941F02DC01CB01BC0170
:1010F000CD010E944900DC01CB019C8B8B8B0FC082
:1011000089E190E09A8B898B89899A890197F1F717
:101110009A8B898B8B899C8901979C8B8B8B8B8974
:101120009C89009769F714C06D897E898F89988D95
:101130000E944900DC01CB019C8B8B8B8B899C89A5
:10114000988B8F878F8598890197F1F7988B8F8778
:10115000DE01AB5ABF4FFE01EB5AFF4F80819181F8
:10116000019611969C938E93FE01E85AFF4F808161
:10117000282F30E0FE01EB5AFF4F808191818217CA
:1011800093070CF4FBCE80E090E0A8ECB2E48B87F0
:101190009C87AD87BE876B857C858D859E8520E08D
:1011A00030E04AE753E40E941F02DC01CB018F8349
:1011B0009887A987BA876F81788589859A8520E085
:1011C00030E040E85FE30E94790388232CF481E05B
:1011D00090E09E838D833FC06F81788589859A8555
:1011E00020E03FEF4FE757E40E94190318164CF533
:1011F0006B857C858D859E8520E030E040E251E462
:101200000E941F02DC01CB01BC01CD010E944900FC
:10121000DC01CB019E838D830FC089E190E09C832C
:101220008B838B819C810197F1F79C838B838D81CC
:101230009E8101979E838D838D819E81009769F7A2
:1012400014C06F81788589859A850E944900DC01E8
:10125000CB019E838D838D819E819A838983898131
:101260009A810197F1F79A838983C85ADF4F0FB6A5
:10127000F894DEBF0FBECDBFCF91DF911F910F91CC
:101280000895DF93CF93CDB7DEB7AAE3B0E0EAE3EA
:10129000F0E080818F708C93AAE3B0E0EAE3F0E0A5
:1012A0008081807F8C93A7E3B0E0E7E3F0E080816A
:1012B0008F708C93A7E3B0E0E7E3F0E08081807F5C
:1012C0008C93A4E3B0E0E4E3F0E080818F708C9332
:1012D000A4E3B0E0E4E3F0E08081807F8C93A1E3BD
:1012E000B0E0E1E3F0E080818F708C93A1E3B0E0A7
:1012F000E1E3F0E08081807F8C93CF91DF910895CE
:10130000DF93CF9300D000D00F92CDB7DEB78A83A2
:101310006B838A81282F30E03D832C834C815D8153
:1013200041305105B1F18C819D818230910534F4B9
:101330002C813D812115310571F084C04C815D8186
:101340004230510509F443C08C819D818330910561
:1013500009F45BC077C0E9E3F0E08081482F50E0FA
:101360008B81282F30E081E090E002C0880F991F28
:101370002A95E2F79A01282339238B81882F90E060
:10138000A90102C0559547958A95E2F7CA0189835C
:1013900059C0E6E3F0E08081482F50E08B81282F90
:1013A00030E081E090E002C0880F991F2A95E2F7B3
:1013B0009A01282339238B81882F90E0A90102C04C
:1013C000559547958A95E2F7CA0189833BC0E3E3C7
:1013D000F0E08081482F50E08B81282F30E081E0C1
:1013E00090E002C0880F991F2A95E2F79A012823FE
:1013F00039238B81882F90E0A90102C0559547952C
:101400008A95E2F7CA0189831DC0E0E3F0E080819C
:10141000482F50E08B81282F30E081E090E002C01F
:10142000880F991F2A95E2F79A01282339238B8187
:10143000882F90E0A90102C0559547958A95E2F75B
:10144000CA01898389810F900F900F900F900F90A0
:10145000CF91DF910895DF93CF9300D000D00F920A
:10146000CDB7DEB789836A834B838981282F30E02B
:101470003D832C838C819D818130910509F446C088
:101480002C813D81223031052CF48C819D81009787
:1014900071F0C7C02C813D812230310509F465C04F
:1014A0008C819D818330910509F48EC0BAC08B81F7
:1014B0008823A1F4ABE3B0E0EBE3F0E08081482FB8
:1014C0008A81282F30E081E090E0022E02C0880F50
:1014D000991F0A94E2F7809584238C938B81813045
:1014E00009F09FC0ABE3B0E0EBE3F0E08081482F70
:1014F0008A81282F30E081E090E0022E02C0880F20
:10150000991F0A94E2F7842B8C938BC08B818823DC
:10151000A1F4A8E3B0E0E8E3F0E08081482F8A81FD
:10152000282F30E081E090E0022E02C0880F991F42
:101530000A94E2F7809584238C938B81813009F0A3
:1015400070C0A8E3B0E0E8E3F0E08081482F8A8132
:10155000282F30E081E090E0022E02C0880F991F12
:101560000A94E2F7842B8C935CC08B818823A1F4CE
:10157000A5E3B0E0E5E3F0E08081482F8A81282FE1
:1015800030E081E090E0022E02C0880F991F0A949B
:10159000E2F7809584238C938B81813009F041C0E0
:1015A000A5E3B0E0E5E3F0E08081482F8A81282FB1
:1015B00030E081E090E0022E02C0880F991F0A946B
:1015C000E2F7842B8C932DC08B818823A1F4A2E3B6
:1015D000B0E0E2E3F0E08081482F8A81282F30E0FC
:1015E00081E090E0022E02C0880F991F0A94E2F772
:1015F000809584238C938B81813099F4A2E3B0E0B1
:10160000E2E3F0E08081482F8A81282F30E081E0FA
:1016100090E0022E02C0880F991F0A94E2F7842BF3
:101620008C930F900F900F900F900F90CF91DF91B0
:101630000895DF93CF9300D000D00F92CDB7DEB7DF
:1016400089836A834B838981282F30E03D832C83F3
:101650008C819D818130910509F446C02C813D81AA
:10166000223031052CF48C819D81009771F0C7C028
:101670002C813D812230310509F465C08C819D812A
:101680008330910509F48EC0BAC08B818823A1F400
:10169000AAE3B0E0EAE3F0E08081482F8A81282FB6
:1016A00030E081E090E0022E02C0880F991F0A947A
:1016B000E2F7809584238C938B81813009F09FC061
:1016C000AAE3B0E0EAE3F0E08081482F8A81282F86
:1016D00030E081E090E0022E02C0880F991F0A944A
:1016E000E2F7842B8C938BC08B818823A1F4A7E332
:1016F000B0E0E7E3F0E08081482F8A81282F30E0D6
:1017000081E090E0022E02C0880F991F0A94E2F750
:10171000809584238C938B81813009F070C0A7E37E
:10172000B0E0E7E3F0E08081482F8A81282F30E0A5
:1017300081E090E0022E02C0880F991F0A94E2F720
:10174000842B8C935CC08B818823A1F4A4E3B0E04C
:10175000E4E3F0E08081482F8A81282F30E081E0A7
:1017600090E0022E02C0880F991F0A94E2F780953C
:1017700084238C938B81813009F041C0A4E3B0E0D5
:10178000E4E3F0E08081482F8A81282F30E081E077
:1017900090E0022E02C0880F991F0A94E2F7842B72
:1017A0008C932DC08B818823A1F4A1E3B0E0E1E309
:1017B000F0E08081482F8A81282F30E081E090E09E
:1017C000022E02C0880F991F0A94E2F780958423A5
:1017D0008C938B81813099F4A1E3B0E0E1E3F0E0F8
:1017E0008081482F8A81282F30E081E090E0022E0E
:1017F00002C0880F991F0A94E2F7842B8C930F90F4
:101800000F900F900F900F90CF91DF910895DF937D
:10181000CF930F92CDB7DEB78983E2E2F0E0898102
:1018200080830F90CF91DF910895DF93CF93CDB751
:10183000DEB7A6E5B0E0E6E5F0E0808180688C9355
:10184000A6E5B0E0E6E5F0E0808180648C93A6E553
:10185000B0E0E6E5F0E0808184608C93E6E5F0E0BE
:101860008081881F8827881F882F90E090700097BC
:10187000A9F3E1E2F0E08081882F90E0887F90700A
:1018800080369105B1F7A6E5B0E0E6E5F0E08081AD
:1018900080688C93E6E5F0E08081881F8827881FA8
:1018A000882F90E090700097A9F3E1E2F0E080814A
:1018B000882F90E0887F907080369105B1F7E3E241
:1018C000F0E08081CF91DF910895DF93CF93CDB782
:1018D000DEB76D970FB6F894DEBF0FBECDBF8D8F0C
:1018E00083E060E040E00E942B0AA5E3B0E0E5E37E
:1018F000F0E08081282F2F708D8D82958F70882F3A
:1019000090E0907082959295907F9827807F98279D
:10191000822B8C9383E061E041E00E942B0A80E0FF
:1019200090E0A0E0B0E4898F9A8FAB8FBC8F698D77
:101930007A8D8B8D9C8D20E030E04AE753E40E9445
:101940001F02DC01CB018D8B9E8BAF8BB88F6D8915
:101950007E898F89988D20E030E040E85FE30E9427
:10196000790388232CF481E090E09C8B8B8B3FC023
:101970006D897E898F89988D20E03FEF4FE757E48E
:101980000E94190318164CF5698D7A8D8B8D9C8DEC
:1019900020E030E040E251E40E941F02DC01CB0174
:1019A000BC01CD010E944900DC01CB019C8B8B8BDB
:1019B0000FC089E190E09A8B898B89899A89019778
:1019C000F1F79A8B898B8B899C8901979C8B8B8BE8
:1019D0008B899C89009769F714C06D897E898F89EE
:1019E000988D0E944900DC01CB019C8B8B8B8B89ED
:1019F0009C89988B8F878F8598890197F1F7988BB1
:101A00008F8783E061E040E00E942B0AA5E3B0E00D
:101A1000E5E3F0E08081282F2F708D8D882F90E0F6
:101A20008F70907082959295907F9827807F9827ED
:101A3000822B8C9383E061E041E00E942B0A80E0DE
:101A400090E0A0E0B0E48B879C87AD87BE876B8574
:101A50007C858D859E8520E030E04AE753E40E9436
:101A60001F02DC01CB018F839887A987BA876F811A
:101A7000788589859A8520E030E040E85FE30E9420
:101A8000790388232CF481E090E09E838D833FC00E
:101A90006F81788589859A8520E03FEF4FE757E48D
:101AA0000E94190318164CF56B857C858D859E85E3
:101AB00020E030E040E251E40E941F02DC01CB0153
:101AC000BC01CD010E944900DC01CB019E838D83C6
:101AD0000FC089E190E09C838B838B819C8101976F
:101AE000F1F79C838B838D819E8101979E838D83EB
:101AF0008D819E81009769F714C06F8178858985F3
:101B00009A850E944900DC01CB019E838D838D81E3
:101B10009E819A83898389819A810197F1F79A83BB
:101B2000898383E061E040E00E942B0A6D960FB646
:101B3000F894DEBF0FBECDBFCF91DF910895DF9344
:101B4000CF93CDB7DEB7AA970FB6F894DEBF0FBE1E
:101B5000CDBF83E060E041E00E94190B83E061E0CB
:101B600041E00E94190B82E064E041E00E94190B01
:101B700082E065E041E00E94190B82E066E041E00E
:101B80000E94190B82E067E041E00E94190B80E09F
:101B900090E0A8E4B2E48FA398A7A9A7BAA76FA181
:101BA00078A589A59AA520E030E04AE753E40E9491
:101BB0001F02DC01CB018BA39CA3ADA3BEA36BA131
:101BC0007CA18DA19EA120E030E040E85FE30E946F
:101BD000790388232CF481E090E09AA389A33FC085
:101BE0006BA17CA18DA19EA120E03FEF4FE757E4C0
:101BF0000E94190318164CF56FA178A589A59AA51E
:101C000020E030E040E251E40E941F02DC01CB0101
:101C1000BC01CD010E944900DC01CB019AA389A33C
:101C20000FC089E190E098A38F8F8F8D98A10197C5
:101C3000F1F798A38F8F89A19AA101979AA389A3FD
:101C400089A19AA1009769F714C06BA17CA18DA10D
:101C50009EA10E944900DC01CB019AA389A389A11E
:101C60009AA19E8F8D8F8D8D9E8D0197F1F79E8FFE
:101C70008D8F82E00E94650C88E20E94650C80E0F6
:101C800090E0A0E2B1E4898F9A8FAB8FBC8F698D11
:101C90007A8D8B8D9C8D20E030E04AE753E40E94E2
:101CA0001F02DC01CB018D8B9E8BAF8BB88F6D89B2
:101CB0007E898F89988D20E030E040E85FE30E94C4
:101CC000790388232CF481E090E09C8B8B8B3FC0C0
:101CD0006D897E898F89988D20E03FEF4FE757E42B
:101CE0000E94190318164CF5698D7A8D8B8D9C8D89
:101CF00020E030E040E251E40E941F02DC01CB0111
:101D0000BC01CD010E944900DC01CB019C8B8B8B77
:101D10000FC089E190E09A8B898B89899A89019714
:101D2000F1F79A8B898B8B899C8901979C8B8B8B84
:101D30008B899C89009769F714C06D897E898F898A
:101D4000988D0E944900DC01CB019C8B8B8B8B8989
:101D50009C89988B8F878F8598890197F1F7988B4D
:101D60008F878CE00E94650C80E090E0A0E2B1E4F7
:101D70008B879C87AD87BE876B857C858D859E858F
:101D800020E030E04AE753E40E941F02DC01CB016F
:101D90008F839887A987BA876F81788589859A8587
:101DA00020E030E040E85FE30E94790388232CF4D0
:101DB00081E090E09E838D833FC06F817885898527
:101DC0009A8520E03FEF4FE757E40E941903181669
:101DD0004CF56B857C858D859E8520E030E040E26A
:101DE00051E40E941F02DC01CB01BC01CD010E9425
:101DF0004900DC01CB019E838D830FC089E190E017
:101E00009C838B838B819C810197F1F79C838B83CF
:101E10008D819E8101979E838D838D819E81009708
:101E200069F714C06F81788589859A850E94490079
:101E3000DC01CB019E838D838D819E819A83898372
:101E400089819A810197F1F79A8389830E9475109D
:101E500081E00E946F12AA960FB6F894DEBF0FBE03
:101E6000CDBFCF91DF910895DF93CF93CDB7DEB78C
:101E70006D970FB6F894DEBF0FBECDBF8D8FA2E376
:101E8000B0E0E2E3F0E0808181608C93A5E3B0E014
:101E9000E5E3F0E08081282F2F708D8D82958F7083
:101EA000882F90E0907082959295907F9827807F00
:101EB0009827822B8C9383E061E041E00E942B0AFB
:101EC00080E090E0A0EAB1E4898F9A8FAB8FBC8F5D
:101ED000698D7A8D8B8D9C8D20E030E04AE753E44C
:101EE0000E941F02DC01CB018D8B9E8BAF8BB88FC4
:101EF0006D897E898F89988D20E030E040E85FE32E
:101F00000E94790388232CF481E090E09C8B8B8BDA
:101F10003FC06D897E898F89988D20E03FEF4FE724
:101F200057E40E94190318164CF5698D7A8D8B8D34
:101F30009C8D20E030E040E251E40E941F02DC0171
:101F4000CB01BC01CD010E944900DC01CB019C8B7F
:101F50008B8B0FC089E190E09A8B898B89899A8954
:101F60000197F1F79A8B898B8B899C8901979C8BC0
:101F70008B8B8B899C89009769F714C06D897E894A
:101F80008F89988D0E944900DC01CB019C8B8B8B43
:101F90008B899C89988B8F878F8598890197F1F71A
:101FA000988B8F8783E061E040E00E942B0AA5E3D5
:101FB000B0E0E5E3F0E08081282F2F708D8D882F31
:101FC00090E08F70907082959295907F9827807F97
:101FD0009827822B8C9383E061E041E00E942B0ADA
:101FE00080E090E0A0EAB1E48B879C87AD87BE8754
:101FF0006B857C858D859E8520E030E04AE753E443
:102000000E941F02DC01CB018F839887A987BA87C2
:102010006F81788589859A8520E030E040E85FE32C
:102020000E94790388232CF481E090E09E838D83C5
:102030003FC06F81788589859A8520E03FEF4FE723
:1020400057E40E94190318164CF56B857C858D8525
:102050009E8520E030E040E251E40E941F02DC0156
:10206000CB01BC01CD010E944900DC01CB019E8364
:102070008D830FC089E190E09C838B838B819C8151
:102080000197F1F79C838B838D819E8101979E83BD
:102090008D838D819E81009769F714C06F8178854B
:1020A00089859A850E944900DC01CB019E838D833E
:1020B0008D819E819A83898389819A810197F1F725
:1020C0009A83898383E061E040E00E942B0A80913B
:1020D00072008F5F809372006D960FB6F894DEBF2A
:1020E0000FBECDBFCF91DF910895DF93CF93CDB7D2
:1020F000DEB72E970FB6F894DEBF0FBECDBF81E0DE
:102100000E94650C80E090E0A0EAB1E48B879C8798
:10211000AD87BE876B857C858D859E8520E030E010
:102120004AE753E40E941F02DC01CB018F839887AA
:10213000A987BA876F81788589859A8520E030E004
:1021400040E85FE30E94790388232CF481E090E06B
:102150009E838D833FC06F81788589859A8520E035
:102160003FEF4FE757E40E94190318164CF56B85B3
:102170007C858D859E8520E030E040E251E40E9420
:102180001F02DC01CB01BC01CD010E944900DC0132
:10219000CB019E838D830FC089E190E09C838B836C
:1021A0008B819C810197F1F79C838B838D819E812C
:1021B00001979E838D838D819E81009769F714C05E
:1021C0006F81788589859A850E944900DC01CB0161
:1021D0009E838D838D819E819A83898389819A8153
:1021E0000197F1F79A838983109270002E960FB6AB
:1021F000F894DEBF0FBECDBFCF91DF910895DF937E
:10220000CF9300D0CDB7DEB789836A838A818823D4
:1022100029F08981805C8093720003C0898180935A
:102220007200809172000E94FF120F900F90CF9168
:10223000DF910895DF93CF9300D000D00F92CDB7F8
:10224000DEB79C838B831A82198206C08A818F5FD6
:102250008A8389818F5F89838A81282F30E08B81EF
:102260009C81FC01E20FF31F8081882319F0898192
:10227000813160F389818131B8F41A820EC08A817C
:10228000282F30E08B819C81FC01E20FF31F8081BD
:102290000E94340F8A818F5F8A839A81898198177F
:1022A00070F381E08D8301C01D828D810F900F90AE
:1022B0000F900F900F90CF91DF910895DF93CF9300
:1022C000CDB7DEB72F970FB6F894DEBF0FBECDBFE8
:1022D0008F878F850E94650C80E090E0A0E2B1E4DA
:1022E0008B879C87AD87BE876B857C858D859E851A
:1022F00020E030E04AE753E40E941F02DC01CB01FA
:102300008F839887A987BA876F81788589859A8511
:1023100020E030E040E85FE30E94790388232CF45A
:1023200081E090E09E838D833FC06F8178858985B1
:102330009A8520E03FEF4FE757E40E9419031816F3
:102340004CF56B857C858D859E8520E030E040E2F4
:1023500051E40E941F02DC01CB01BC01CD010E94AF
:102360004900DC01CB019E838D830FC089E190E0A1
:102370009C838B838B819C810197F1F79C838B835A
:102380008D819E8101979E838D838D819E81009793
:1023900069F714C06F81788589859A850E94490004
:1023A000DC01CB019E838D838D819E819A838983FD
:1023B00089819A810197F1F79A8389832F960FB6C5
:1023C000F894DEBF0FBECDBFCF91DF910895DF93AC
:1023D000CF93CDB7DEB72E970FB6F894DEBF0FBE02
:1023E000CDBF8CE10E94650C80E090E0A0E2B1E4FA
:1023F0008B879C87AD87BE876B857C858D859E8509
:1024000020E030E04AE753E40E941F02DC01CB01E8
:102410008F839887A987BA876F81788589859A8500
:1024200020E030E040E85FE30E94790388232CF449
:1024300081E090E09E838D833FC06F8178858985A0
:102440009A8520E03FEF4FE757E40E9419031816E2
:102450004CF56B857C858D859E8520E030E040E2E3
:1024600051E40E941F02DC01CB01BC01CD010E949E
:102470004900DC01CB019E838D830FC089E190E090
:102480009C838B838B819C810197F1F79C838B8349
:102490008D819E8101979E838D838D819E81009782
:1024A00069F714C06F81788589859A850E944900F3
:1024B000DC01CB019E838D838D819E819A838983EC
:1024C00089819A810197F1F79A8389832E960FB6B5
:1024D000F894DEBF0FBECDBFCF91DF910895DF939B
:1024E000CF93CDB7DEB72F970FB6F894DEBF0FBEF0
:1024F000CDBF8F878F85882321F086E00E94650CF1
:1025000003C087E00E94650C80E090E0A0E2B1E4A7
:102510008B879C87AD87BE876B857C858D859E85E7
:1025200020E030E04AE753E40E941F02DC01CB01C7
:102530008F839887A987BA876F81788589859A85DF
:1025400020E030E040E85FE30E94790388232CF428
:1025500081E090E09E838D833FC06F81788589857F
:102560009A8520E03FEF4FE757E40E9419031816C1
:102570004CF56B857C858D859E8520E030E040E2C2
:1025800051E40E941F02DC01CB01BC01CD010E947D
:102590004900DC01CB019E838D830FC089E190E06F
:1025A0009C838B838B819C810197F1F79C838B8328
:1025B0008D819E8101979E838D838D819E81009761
:1025C00069F714C06F81788589859A850E944900D2
:1025D000DC01CB019E838D838D819E819A838983CB
:1025E00089819A810197F1F79A8389832F960FB693
:1025F000F894DEBF0FBECDBFCF91DF910895DF937A
:10260000CF93CDB7DEB72F970FB6F894DEBF0FBECE
:10261000CDBF8F878F850E94650C80E090E0A0E29F
:10262000B1E48B879C87AD87BE876B857C858D8564
:102630009E8520E030E04AE753E40E941F02DC015F
:10264000CB018F839887A987BA876F817885898521
:102650009A8520E030E040E85FE30E947903882318
:102660002CF481E090E09E838D833FC06F8178855C
:1026700089859A8520E03FEF4FE757E40E941903D0
:1026800018164CF56B857C858D859E8520E030E0A5
:1026900040E251E40E941F02DC01CB01BC01CD01EC
:1026A0000E944900DC01CB019E838D830FC089E12C
:1026B00090E09C838B838B819C810197F1F79C83B5
:1026C0008B838D819E8101979E838D838D819E81D9
:1026D000009769F714C06F81788589859A850E9473
:1026E0004900DC01CB019E838D838D819E819A837D
:1026F000898389819A810197F1F79A8389832F963B
:102700000FB6F894DEBF0FBECDBFCF91DF91089515
:10271000DF93CF9300D000D00F92CDB7DEB78B837D
:1027200080917000882F90E00896880F991F880F7D
:10273000991F880F991F0E945E118B81282F30E00E
:102740003D832C838C819D818E30910509F4FCC1E1
:102750002C813D812F3031050CF055C08C819D813D
:102760008730910509F441C12C813D812830310524
:102770002CF58C819D818330910509F4D2C02C8188
:102780003D81243031056CF48C819D81813091052F
:1027900009F494C02C813D812230310509F4A8C090
:1027A00049C38C819D818530910509F4ECC02C8151
:1027B0003D81263031050CF0FFC0CCC08C819D815D
:1027C0008A30910509F45CC12C813D812B303105A3
:1027D0006CF48C819D818830910509F41FC12C8196
:1027E0003D812930310509F432C124C38C819D819A
:1027F0008C30910509F476C12C813D812D30310555
:102800000CF089C156C18C819D818531910509F4F7
:102810004AC22C813D81263131052CF58C819D8168
:102820008131910509F4DBC12C813D8122313105D3
:102830006CF48C819D818F30910509F49EC12C81AF
:102840003D812031310509F4B1C1F4C28C819D81F3
:102850008331910509F4F5C12C813D812431310585
:102860000CF008C2D5C18C819D818931910509F494
:102870007EC22C813D812A3131056CF48C819D8191
:102880008731910509F441C22C813D812831310500
:102890000CF054C221C28C819D818B31910509F4C9
:1028A00098C22C813D812B3131050CF479C28C8189
:1028B0009D818C31910509F4A5C2BCC21A8219828E
:1028C00008C084E00E94340F89819A8101969A831E
:1028D000898389819A81853091059CF387E00E94E4
:1028E000340F80E00E94340F80E00E94340FA2C2B7
:1028F00080E00E94340F80E00E94340F80E00E944C
:10290000340F81E00E94340F81E00E94340F8FEF7A
:102910000E94340F80E00E94340F81E00E94340F47
:1029200089C280E00E94340F80E00E94340F80E072
:102930000E94340F85EF0E94340F81E00E94340F13
:102940008FEF0E94340F80E00E94340F80E00E94DD
:10295000340F70C280E00E94340F80E00E94340F78
:1029600088E00E94340F85EF0E94340F81E00E94BE
:10297000340F8FEF0E94340F80E00E94340F80E00C
:102980000E94340F57C280E00E94340F80E00E9402
:10299000340F8CE00E94340F82EF0E94340F81E0EC
:1029A0000E94340F8FEF0E94340F80E00E94340F9A
:1029B00081E00E94340F3EC280E00E94340F80E02C
:1029C0000E94340F8CE00E94340F82EF0E94340F7B
:1029D00081E00E94340F8FEF0E94340F80E00E944C
:1029E000340F80E00E94340F25C284E00E94340F2F
:1029F00080E00E94340F8CE00E94340F82EF0E942E
:102A0000340F81E00E94340F8FEF0E94340F80E07A
:102A10000E94340F80E00E94340F0CC280E00E94BC
:102A2000340F80E00E94340F80E00E94340F81E078
:102A30000E94340F81E00E94340F8FE00E94340F17
:102A400080E00E94340F80E00E94340FF3C180E0E8
:102A50000E94340F81E00E94340F80E00E94340F06
:102A600081E00E94340F81E00E94340F8FE00E94C9
:102A7000340F80E00E94340F80E00E94340FDAC1EE
:102A800080E00E94340F80E00E94340F80E00E94BA
:102A9000340F80E00E94340F80E00E94340F83E006
:102AA0000E94340F82E00E94340F84E00E94340FB1
:102AB000C1C180E00E94340F80E00E94340F80E0AA
:102AC0000E94340F82E00E94340F80E00E94340F95
:102AD00083E00E94340F82E00E94340F84E00E9461
:102AE000340FA8C180E00E94340F80E00E94340FB0
:102AF00080E00E94340F85E10E94340F85E10E943E
:102B0000340F8FE10E94340F80E00E94340F80E088
:102B10000E94340F8FC184E00E94340F8AE00E942B
:102B2000340F80E00E94340F85E10E94340F85E16C
:102B30000E94340F8FE10E94340F80E00E94340F16
:102B400080E00E94340F76C180E00E94340F80E064
:102B50000E94340F80E00E94340F86E00E94340F00
:102B600089E00E94340F8FE10E94340F80E00E94C0
:102B7000340F80E00E94340F5DC180E00E94340F6A
:102B800084E00E94340F80E00E94340F86E00E94AF
:102B9000340F89E00E94340F8FE10E94340F80E0EF
:102BA0000E94340F80E00E94340F44C180E00E94F4
:102BB000340F88E00E94340F88E00E94340F8EE0CA
:102BC0000E94340F89E00E94340F8FE10E94340F7D
:102BD00080E00E94340F80E00E94340F2BC180E01F
:102BE0000E94340F8AE00E94340F88E00E94340F64
:102BF0008EE00E94340F89E00E94340F8FE10E9422
:102C0000340F80E00E94340F80E00E94340F12C124
:102C100080E00E94340F80E00E94340F87E00E9421
:102C2000340F88E00E94340F88E00E94340F8FE157
:102C30000E94340F80E00E94340F80E00E94340F25
:102C4000F9C084E00E94340F80E00E94340F87E0D6
:102C50000E94340F88E00E94340F88E00E94340FF5
:102C60008FE10E94340F80E00E94340F80E00E94C8
:102C7000340FE0C082E00E94340F80E00E94340FE5
:102C800083E00E94340F83E00E94340F81E00E94B1
:102C9000340F8FE10E94340F80E00E94340F80E0F7
:102CA0000E94340FC7C083E00E94340F80E00E946E
:102CB000340F83E00E94340F83E00E94340F81E0E0
:102CC0000E94340F8FE10E94340F80E00E94340F85
:102CD00080E00E94340FAEC080E00E94340F8FE08D
:102CE0000E94340F84E00E94340F82E00E94340F6F
:102CF00081E00E94340F8FE10E94340F80E00E9437
:102D0000340F80E00E94340F95C080E00E94340FA1
:102D100081E00E94340F81E00E94340F81E00E9424
:102D2000340F81E00E94340F8FE10E94340F80E065
:102D30000E94340F80E00E94340F7CC080E00E942B
:102D4000340F80E00E94340F80E00E94340F80E056
:102D50000E94340F83E00E94340F8FE10E94340FF1
:102D600083E00E94340F80E00E94340F63C080E053
:102D70000E94340F80E00E94340F80E00E94340FE4
:102D800085E00E94340F81E00E94340F8FE10E94A1
:102D9000340F80E00E94340F80E00E94340F4AC05C
:102DA00080E00E94340F80E00E94340F80E00E9497
:102DB000340F80E00E94340F86E00E94340F8FE1D0
:102DC0000E94340F86E00E94340F80E00E94340F8E
:102DD00031C080E00E94340F80E00E94340F80E018
:102DE0000E94340F80E00E94340F83E00E94340F71
:102DF00083E00E94340F81E00E94340F82E00E9441
:102E0000340F18C080E00E94340F80E00E94340F1D
:102E100080E00E94340F81E00E94340F81E00E9424
:102E2000340F8FE10E94340F80E00E94340F8AE05B
:102E30000E94340F809172008850809372009091AC
:102E4000700080917200890F80580E94FF120F90CD
:102E50000F900F900F900F90CF91DF910895DF9317
:102E6000CF930F92CDB7DEB7898389810E945A171D
:102E7000882399F489810E948813809170000E94B0
:102E8000340F809170008F5F80937000809170008C
:102E9000883038F01092700004C0809171000E9458
:102EA000340F809172008150809372000F90CF9107
:102EB000DF910895DF93CF9300D000D0CDB7DEB778
:102EC0008B831A82198214C089819A81FC01E85986
:102ED000FF4F90818B81981731F489818093710025
:102EE00081E08C8314C089819A8101969A838983B9
:102EF00089819A81883091053CF380917000882FF8
:102F000090E0FC01E859FF4F8B8180831C828C810B
:102F10000F900F900F900F90CF91DF910895DF9356
:102F2000CF9300D000D000D0CDB7DEB79D838C8387
:102F300080917200883610F0109272001B821A8203
:102F4000198208C08A819B8101969B838A8389812B
:102F50008F5F89832A813B818C819D81FC01E20FF7
:102F6000F31F8081882319F08981813158F3898189
:102F7000813190F58981882F90E001979B838A8326
:102F800024C02A813B818C819D81FC01E20FF31FCB
:102F900080818D3158F42A813B818C819D81FC0197
:102FA000E20FF31F80810E942F170AC02A813B8104
:102FB0008C819D81FC01E20FF31F80810E94340F00
:102FC0008A819B8101979B838A838A819B81992334
:102FD000C4F681E08E8301C01E828E8126960FB6D4
:102FE000F894DEBF0FBECDBFCF91DF910895DF9380
:102FF000CF93CDB7DEB760970FB6F894DEBF0FBEA4
:10300000CDBF188A80E28F878F850E94070C0E94AF
:103010009F0D0E94150C888B88890E94340F80E0D8
:1030200090E0AAE7B4E48B879C87AD87BE876B8569
:103030007C858D859E8520E030E04AE753E40E9440
:103040001F02DC01CB018F839887A987BA876F8124
:10305000788589859A8520E030E040E85FE30E942A
:10306000790388232CF481E090E09E838D833FC018
:103070006F81788589859A8520E03FEF4FE757E497
:103080000E94190318164CF56B857C858D859E85ED
:1030900020E030E040E251E40E941F02DC01CB015D
:1030A000BC01CD010E944900DC01CB019E838D83D0
:1030B0000FC089E190E09C838B838B819C81019779
:1030C000F1F79C838B838D819E8101979E838D83F5
:1030D0008D819E81009769F714C06F8178858985FD
:1030E0009A850E944900DC01CB019E838D838D81EE
:1030F0009E819A83898389819A810197F1F79A83C6
:1031000089830E94751085CF2F923F924F925F92D4
:103110006F927F928F929F92AF92BF92CF92DF92E7
:10312000EF92FF920F931F93CF93DF93CDB7DEB74C
:10313000CA1BDB0B0FB6F894DEBF0FBECDBF0994E0
:103140002A88398848885F846E847D848C849B8437
:10315000AA84B984C884DF80EE80FD800C811B8145
:10316000AA81B981CE0FD11D0FB6F894DEBF0FBE74
:0A317000CDBFED010895F894FFCFE4
:10317A0000000000000000001C1C1C1C1C1C1C1C65
:00000001FF
